:100000000C9462010C9483010C9483010C94830181
:100010000C9483010C9483010C9483010C94830150
:100020000C9483010C9483010C9483010C94830140
:100030000C9483010C9483010C9483010C94830130
:100040000C9483010C9483010C9483010C94830120
:100050000C9483010C9483010C9483010C94830110
:100060000C9483010C9416140C9483010C9483015A
:100070000C9483010C9483010C9483010C948301F0
:100080000C9483010C9483010C9483010C948301E0
:100090000C9483010C9483010C9483010C948301D0
:1000A0000C9483010C9483010C9483010C948301C0
:1000B0000C9483010C9483010C9483010C948301B0
:1000C0000C9483010C9483010C9483010C948301A0
:1000D0000C9483010C9483010C9483010C94830190
:1000E0000C948301000000000000004F0000000796
:1000F000000700147F147F14242A7F2A1223130878
:10010000646236495522500005030000001C22415C
:10011000000041221C0014083E081408083E08088C
:100120000050300000080808080800606000002047
:10013000100804023E5149453E00427F40004261A2
:100140005149462141454B311814127F102745452E
:1001500045393C4A49493001710905033649494945
:1001600036064949291E0036360000005636000082
:10017000081422410014141414140041221408021B
:1001800001510906324979413E7E1111117E7F49A4
:100190004949363E414141227F4141221C7F494924
:1001A00049417F090909013E4149497A7F08080808
:1001B0007F00417F41002040413F017F08142241E0
:1001C0007F404040407F020C027F7F0408107F3E4A
:1001D0004141413E7F090909063E4151215E7F09A7
:1001E000192946264949493201017F01013F404012
:1001F000403F1F2040201F3F4038403F63140814F9
:100200006307087008076151494543007F41410079
:1002100002040810200041417F0004020102044052
:1002200040404040000102040020545454787F486C
:100230004444383844444420384444487F38545473
:100240005418087E0901020C5252523E7F080404E1
:100250007800047D00002040443D007F10284400C9
:1002600000417F40007C0418047C7C08040478383A
:10027000444444387C14141408081414187C7C0872
:100280000404084854545420043F4440203C404057
:10029000207C1C2040201C3C4030403C442810283E
:1002A000440C5050503C4464544C440008364100C7
:1002B000000077000000413608000804081008001C
:1002C0000000000011241FBECFEFD1E2DEBFCDBF82
:1002D00000E00CBF15E0A0E0B2E0E4ECF5E300E0E4
:1002E0000BBF02C007900D92A234B107D9F719E0F5
:1002F000A2E4B5E001C01D92AC36B107E1F70E945F
:10030000BE010C94E01A0C940000DF93CF93CDB79C
:10031000DEB7E4E7F0E081EC8083E5E7F0E080E839
:100320008083E4E2F0E08FEF8083E5E2F0E010828A
:10033000EDE2F0E08CE08083EEE2F0E01082E1E0BC
:10034000F1E08FEF8083E2E0F1E01082E4E0F1E0A1
:100350008FEF8083E5E0F1E01082E7E0F1E08FEFDE
:100360008083E8E0F1E01082EAE0F1E08FE0808352
:10037000EBE0F1E01082CF91DF9108950F931F938E
:10038000DF93CF93CDB7DEB7C45AD0400FB6F89401
:10039000DEBF0FBECDBFFE01E256FF4F1082FE0151
:1003A000E356FF4F1082FE01E456FF4F1082FE011C
:1003B000E556FF4F10820E948501FE01E956FF4F6E
:1003C00080E090E0A8E4B2E480839183A283B383C9
:1003D0008E010D561F4FFE01E956FF4F608171815E
:1003E0008281938120E030E04AE755E40E9479164B
:1003F000DC01CB01F80180839183A283B383FE01EA
:10040000ED56FF4F608171818281938120E030E061
:1004100040E85FE30E947F18882344F4FE01EF5612
:10042000FF4F81E090E09183808364C0FE01ED5630
:10043000FF4F608171818281938120E03FEF4FE720
:1004400057E40E941F1818160CF043C0FE01E9562D
:10045000FF4F608171818281938120E030E040E232
:1004600051E40E947916DC01CB018E010F561F4F1B
:10047000BC01CD010E94A314DC01CB01F8019183E2
:1004800080831FC0FE01E157FF4F80E991E0918317
:100490008083FE01E157FF4F808191810197F1F741
:1004A000FE01E157FF4F91838083DE01AF56BF4FBE
:1004B000FE01EF56FF4F80819181019711969C9329
:1004C0008E93FE01EF56FF4F808191810097D1F608
:1004D00027C08E010F561F4FFE01ED56FF4F608162
:1004E0007181828193810E94A314DC01CB01F80108
:1004F00091838083DE01A357BF4FFE01EF56FF4F6C
:10050000808191818D939C93FE01E357FF4F808101
:1005100091810197F1F7FE01E357FF4F91838083AB
:100520000E94D30F0E94B20B20E032E080E060E036
:10053000A9010E94E40C2AE132E080E061E0A90117
:100540000E94E40C24E332E080E062E0A9010E9412
:10055000E40C2EE432E080E063E0A9010E94E40CA8
:1005600027E632E080E064E0A9010E94E40C24E385
:1005700032E080E065E0A9010E94E40C21E832E06D
:1005800080E066E0A9010E94E40C2BE932E080E003
:1005900067E0A9010E94E40C0E94E90B25EB32E020
:1005A00080E8B9010E94B20F20EC32E080ECB90182
:1005B0000E94B20F0E9497137894FE01E757FF4FF5
:1005C00080E090E0AAEFB3E480839183A283B383B9
:1005D0008E010B571F4FFE01E757FF4F608171815E
:1005E0008281938120E030E04AE755E40E94791649
:1005F000DC01CB01F80180839183A283B383FE01E8
:10060000EB57FF4F608171818281938120E030E060
:1006100040E85FE30E947F18882344F4FE01ED5711
:10062000FF4F81E090E09183808364C0FE01EB572F
:10063000FF4F608171818281938120E03FEF4FE71E
:1006400057E40E941F1818160CF043C0FE01E7572C
:10065000FF4F608171818281938120E030E040E230
:1006600051E40E947916DC01CB018E010D571F4F1A
:10067000BC01CD010E94A314DC01CB01F8019183E0
:1006800080831FC0FE01EF57FF4F80E991E0918307
:100690008083FE01EF57FF4F808191810197F1F731
:1006A000FE01EF57FF4F91838083DE01AD57BF4FAF
:1006B000FE01ED57FF4F80819181019711969C9328
:1006C0008E93FE01ED57FF4F808191810097D1F607
:1006D00027C08E010D571F4FFE01EB57FF4F608162
:1006E0007181828193810E94A314DC01CB01F80106
:1006F00091838083DE01A158BF4FFE01ED57FF4F6C
:10070000808191818D939C93FE01E158FF4F808100
:1007100091810197F1F7FE01E158FF4F91838083AA
:10072000FE01E558FF4F80E090E0AAEFB3E480833C
:100730009183A283B3838E0109581F4FFE01E558B0
:10074000FF4F608171818281938120E030E04AE730
:1007500055E40E947916DC01CB01F8018083918376
:10076000A283B383FE01E958FF4F608171818281CA
:10077000938120E030E040E85FE30E947F18882307
:1007800044F4FE01EB58FF4F81E090E091838083B9
:1007900064C0FE01E958FF4F6081718182819381BD
:1007A00020E03FEF4FE757E40E941F1818160CF0A7
:1007B00043C0FE01E558FF4F6081718182819381C2
:1007C00020E030E040E251E40E947916DC01CB01E8
:1007D0008E010B581F4FBC01CD010E94A314DC01F8
:1007E000CB01F801918380831FC0FE01ED58FF4FBC
:1007F00080E991E091838083FE01ED58FF4F808175
:1008000091810197F1F7FE01ED58FF4F91838083AD
:10081000DE01AB58BF4FFE01EB58FF4F8081918145
:10082000019711969C938E93FE01EB58FF4F8081A8
:1008300091810097D1F627C08E010B581F4FFE0102
:10084000E958FF4F60817181828193810E94A314D6
:10085000DC01CB01F80191838083DE01AF58BF4FEB
:10086000FE01EB58FF4F808191818D939C93FE0197
:10087000EF58FF4F808191810197F1F7FE01EF580A
:10088000FF4F91838083FE01E359FF4F80E090E0AA
:10089000AAEFB3E480839183A283B3838E010759C7
:1008A0001F4FFE01E359FF4F608171818281938167
:1008B00020E030E04AE755E40E947916DC01CB01E4
:1008C000F80180839183A283B383FE01E759FF4F30
:1008D000608171818281938120E030E040E85FE3B4
:1008E0000E947F18882344F4FE01E959FF4F81E0FC
:1008F00090E09183808364C0FE01E759FF4F6081DF
:1009000071818281938120E03FEF4FE757E40E949D
:100910001F1818160CF043C0FE01E359FF4F608109
:1009200071818281938120E030E040E251E40E94B5
:100930007916DC01CB018E0109591F4FBC01CD0195
:100940000E94A314DC01CB01F801918380831FC0B6
:10095000FE01EB59FF4F80E991E091838083FE0116
:10096000EB59FF4F808191810197F1F7FE01EB591F
:10097000FF4F91838083DE01A959BF4FFE01E959E2
:10098000FF4F80819181019711969C938E93FE0178
:10099000E959FF4F808191810097D1F627C08E01E0
:1009A00009591F4FFE01E759FF4F60817181828114
:1009B00093810E94A314DC01CB01F8019183808311
:1009C000DE01AD59BF4FFE01E959FF4F8081918192
:1009D0008D939C93FE01ED59FF4F8081918101978A
:1009E000F1F7FE01ED59FF4F91838083FE01E15A3B
:1009F000FF4F80E090E0AAEFB3E480839183A2836D
:100A0000B3838E01055A1F4FFE01E15AFF4F6081EB
:100A100071818281938120E030E04AE755E40E94B1
:100A20007916DC01CB01F80180839183A283B38323
:100A3000FE01E55AFF4F608171818281938120E040
:100A400030E040E85FE30E947F18882344F4FE0111
:100A5000E75AFF4F81E090E09183808364C0FE01FC
:100A6000E55AFF4F608171818281938120E03FEFE1
:100A70004FE757E40E941F1818160CF043C0FE0100
:100A8000E15AFF4F608171818281938120E030E0E3
:100A900040E251E40E947916DC01CB018E01075A35
:100AA0001F4FBC01CD010E94A314DC01CB01F80152
:100AB000918380831FC0FE01E95AFF4F80E991E0D6
:100AC00091838083FE01E95AFF4F808191810197D4
:100AD000F1F7FE01E95AFF4F91838083DE01A75AA7
:100AE000BF4FFE01E75AFF4F808191810197119618
:100AF0009C938E93FE01E75AFF4F8081918100976E
:100B0000D1F627C08E01075A1F4FFE01E55AFF4F4D
:100B100060817181828193810E94A314DC01CB01E9
:100B2000F80191838083DE01AB5ABF4FFE01E75A83
:100B3000FF4F808191818D939C93FE01EB5AFF4F73
:100B4000808191810197F1F7FE01EB5AFF4F91836C
:100B500080830E94BC10809164058F3FD9F1809101
:100B600064050E94AF1387E80E94EC0D8091640534
:100B700082958F708A3040F48091640582958F70E1
:100B8000805D0E94CE0E07C08091640582958F70B3
:100B9000895C0E94CE0E88E80E94EC0D809164056D
:100BA000882F90E08F7090708A3091053CF480918E
:100BB00064058F70805D0E94CE0E06C08091640532
:100BC0008F70895C0E94CE0E20EC32E080ECB9017F
:100BD0000E94B20F809164058F37D1F40E942311D7
:100BE000FE01E156FF4F8083FE01E156FF4F8081F9
:100BF000882339F421ED32E080ECB9010E94B20F74
:100C0000A8CF21EE32E080ECB9010E94B20FA1CF53
:100C1000809164058F3B91F40E944711882339F03D
:100C200020EF32E080ECB9010E94B20F92CF20E0B9
:100C300033E080ECB9010E94B20F8BCF8091640544
:100C40008F3D09F086CFFE01EF55FF4F8BEA808381
:100C5000FE01EF55FF4F8DEC81839E012F553F4FD5
:100C600080E061E0A9010E94DB11FE01EF5AFF4F15
:100C700080E090E0AAEFB3E480839183A283B38302
:100C80008E01035B1F4FFE01EF5AFF4F60817181A0
:100C90008281938120E030E04AE755E40E94791692
:100CA000DC01CB01F80180839183A283B383FE0131
:100CB000E35BFF4F608171818281938120E030E0AE
:100CC00040E85FE30E947F18882344F4FE01E55B5F
:100CD000FF4F81E090E09183808364C0FE01E35B7D
:100CE000FF4F608171818281938120E03FEF4FE768
:100CF00057E40E941F1818160CF043C0FE01EF5A6B
:100D0000FF4F608171818281938120E030E040E279
:100D100051E40E947916DC01CB018E01055B1F4F67
:100D2000BC01CD010E94A314DC01CB01F801918329
:100D300080831FC0FE01E75BFF4F80E991E0918354
:100D40008083FE01E75BFF4F808191810197F1F77E
:100D5000FE01E75BFF4F91838083DE01A55BBF4F00
:100D6000FE01E55BFF4F80819181019711969C9375
:100D70008E93FE01E55BFF4F808191810097D1F654
:100D800027C08E01055B1F4FFE01E35BFF4F6081B3
:100D90007181828193810E94A314DC01CB01F8014F
:100DA00091838083DE01A95BBF4FFE01E55BFF4FAE
:100DB000808191818D939C93FE01E95BFF4F80813F
:100DC00091810197F1F7FE01E95BFF4F91838083E9
:100DD000FE01ED5BFF4F80E090E0AAEFB3E480837B
:100DE0009183A283B3838E01015C1F4FFE01ED5BF3
:100DF000FF4F608171818281938120E030E04AE77A
:100E000055E40E947916DC01CB01F80180839183BF
:100E1000A283B383FE01FF966081718182819381F9
:100E200020E030E040E85FE30E947F1888232CF444
:100E300081E090E09EAF8DAF46C0FE01FF966081DD
:100E400071818281938120E03FEF4FE757E40E9458
:100E50001F18181664F5FE01ED5BFF4F608171816C
:100E60008281938120E030E040E251E40E947916D3
:100E7000DC01CB01BC01CD010E94A314DC01CB013C
:100E80009EAF8DAF0FC080E991E09CAF8BAF8BAD73
:100E90009CAD0197F1F79CAF8BAF8DAD9EAD0197E7
:100EA0009EAF8DAF8DAD9EAD009769F716C0FE0168
:100EB000FF9660817181828193810E94A314DC017D
:100EC000CB019EAF8DAF8DAD9EAD9AAF89AF89AD91
:100ED0009AAD0197F1F79AAF89AF80E090E0AAEF61
:100EE000B3E48DAB9EABAFABB8AF6DA97EA98FA9B4
:100EF00098AD20E030E04AE755E40E947916DC0125
:100F0000CB0189AB9AABABABBCAB69A97AA98BA976
:100F10009CA920E030E040E85FE30E947F1888232E
:100F20002CF481E090E098AB8FA73FC069A97AA923
:100F30008BA99CA920E03FEF4FE757E40E941F18C0
:100F400018164CF56DA97EA98FA998AD20E030E068
:100F500040E251E40E947916DC01CB01BC01CD01D5
:100F60000E94A314DC01CB0198AB8FA70FC080E9CE
:100F700091E09EA78DA78DA59EA50197F1F79EA74D
:100F80008DA78FA598A9019798AB8FA78FA598A932
:100F9000009769F714C069A97AA98BA99CA90E9436
:100FA000A314DC01CB0198AB8FA78FA598A99CA7B0
:100FB0008BA78BA59CA50197F1F79CA78BA780E039
:100FC00090E0AAEFB3E48FA398A7A9A7BAA76FA14F
:100FD00078A589A59AA520E030E04AE755E40E946B
:100FE0007916DC01CB018BA39CA3ADA3BEA36BA19F
:100FF0007CA18DA19EA120E030E040E85FE30E944B
:101000007F1888232CF481E090E09AA389A33FC045
:101010006BA17CA18DA19EA120E03FEF4FE757E49B
:101020000E941F1818164CF56FA178A589A59AA5DE
:1010300020E030E040E251E40E947916DC01CB016F
:10104000BC01CD010E94A314DC01CB019AA389A3AA
:101050000FC080E991E098A38F8F8F8D98A10197A1
:10106000F1F798A38F8F89A19AA101979AA389A3D9
:1010700089A19AA1009769F714C06BA17CA18DA1E9
:101080009EA10E94A314DC01CB019AA389A389A18C
:101090009AA19E8F8D8F8D8D9E8D0197F1F79E8FDA
:1010A0008D8F80E090E0AAEFB3E4898F9A8FAB8FA9
:1010B000BC8F698D7A8D8B8D9C8D20E030E04AE766
:1010C00055E40E947916DC01CB018D8B9E8BAF8B92
:1010D000B88F6D897E898F89988D20E030E040E857
:1010E0005FE30E947F1888232CF481E090E09C8BC2
:1010F0008B8B3FC06D897E898F89988D20E03FEF73
:101100004FE757E40E941F1818164CF5698D7A8D29
:101110008B8D9C8D20E030E040E251E40E947916F6
:10112000DC01CB01BC01CD010E94A314DC01CB0189
:101130009C8B8B8B0FC080E991E09A8B898B89897E
:101140009A890197F1F79A8B898B8B899C890197F2
:101150009C8B8B8B8B899C89009769F714C06D8958
:101160007E898F89988D0E94A314DC01CB019C8B12
:101170008B8B8B899C89988B8F878F85988901971A
:10118000F1F7988B8F8780E090E0AAEFB3E48B872C
:101190009C87AD87BE876B857C858D859E8520E08D
:1011A00030E04AE755E40E947916DC01CB018F83D9
:1011B0009887A987BA876F81788589859A8520E085
:1011C00030E040E85FE30E947F1888232CF481E040
:1011D00090E09E838D833FC06F81788589859A8555
:1011E00020E03FEF4FE757E40E941F1818164CF518
:1011F0006B857C858D859E8520E030E040E251E462
:101200000E947916DC01CB01BC01CD010E94A31420
:10121000DC01CB019E838D830FC080E991E09C832C
:101220008B838B819C810197F1F79C838B838D81CC
:101230009E8101979E838D838D819E81009769F7A2
:1012400014C06F81788589859A850E94A314DC017A
:10125000CB019E838D838D819E819A838983898131
:101260009A810197F1F79A8389839E012D553F4F0B
:1012700080E061E0A9010E947711FE01E156FF4F75
:101280008083FE01E156FF4F8081882309F47BC0F3
:1012900087EC0E94EC0DFE01ED55FF4F8081829599
:1012A0008F708A3050F4FE01ED55FF4F808182959A
:1012B0008F70805D0E94CE0E09C0FE01ED55FF4F7C
:1012C000808182958F70895C0E94CE0E88EC0E948E
:1012D000EC0DFE01ED55FF4F8081882F90E08F705F
:1012E00090708A3091054CF4FE01ED55FF4F8081DE
:1012F0008F70805D0E94CE0E08C0FE01ED55FF4F3D
:1013000080818F70895C0E94CE0E89EC0E94EC0D6A
:10131000FE01ED55FF4F818182958F708A3050F428
:10132000FE01ED55FF4F818182958F70805D0E9497
:10133000CE0E09C0FE01ED55FF4F818182958F7061
:10134000895C0E94CE0E8AEC0E94EC0DFE01ED55E8
:10135000FF4F8181882F90E08F7090708A309105C7
:101360004CF4FE01ED55FF4F81818F70805D0E942E
:10137000CE0EEFCBFE01ED55FF4F81818F70895C62
:101380000E94CE0EE6CB2FE033E080ECB9010E9444
:10139000B20FDFCBDF93CF93CDB7DEB76A970FB62F
:1013A000F894DEBF0FBECDBF898F6A8FE2E0F1E017
:1013B000898D807C80830F920F900F920F90E5E0D3
:1013C000F1E08A8D8083E2E0F1E0898D807C8062AB
:1013D00080830F920F900F920F90E2E0F1E0898DE1
:1013E000807C80830000E2E0F1E0108280E090E009
:1013F000A0E2B1E48D8B9E8BAF8BB88F6D897E8917
:101400008F89988D2BEA3AEA4AEA50E40E947916CD
:10141000DC01CB01898B9A8BAB8BBC8B69897A8978
:101420008B899C8920E030E040E85FE30E947F18D0
:1014300088231CF481E0888B91C069897A898B8923
:101440009C8920E030E04FE753E40E941F181816F3
:101450000CF07BC06D897E898F89988D20E030E00B
:101460004AE754E40E947317DC01CB018C879D8707
:10147000AE87BF876C857D858E859F8520E030E0B7
:101480004AE755E40E947916DC01CB0188879987E9
:10149000AA87BB87688579858A859B8520E030E0AF
:1014A00040E85FE30E947F1888232CF481E090E0FD
:1014B0009F838E833FC0688579858A859B8520E0E0
:1014C0003FEF4FE757E40E941F1818164CF56C8544
:1014D0007D858E859F8520E030E040E251E40E94CA
:1014E0007916DC01CB01BC01CD010E94A314DC0103
:1014F000CB019F838E830FC080E991E09D838C8315
:101500008C819D810197F1F79D838C838E819F81D2
:1015100001979F838E838E819F81009769F724C0F6
:10152000688579858A859B850E94A314DC01CB019F
:101530009F838E838E819F819B838A838A819B81F7
:101540000197F1F79B838A830FC069897A898B8918
:101550009C890E94A314DC01CB01888B8889898334
:1015600089818A95F1F789836A960FB6F894DEBF70
:101570000FBECDBFCF91DF910895DF93CF93CDB74D
:10158000DEB76A970FB6F894DEBF0FBECDBF898F66
:101590006A8FE2E0F1E0898D807C806180830F9228
:1015A0000F900F920F90E5E0F1E08A8D8083E2E0EA
:1015B000F1E0898D807C806380830F920F900F9281
:1015C0000F90E2E0F1E0898D807C806180830000F3
:1015D000E2E0F1E0108280E090E0A0E2B1E48D8BE7
:1015E0009E8BAF8BB88F6D897E898F89988D2BEA02
:1015F0003AEA4AEA50E40E947916DC01CB01898B71
:101600009A8BAB8BBC8B69897A898B899C8920E00A
:1016100030E040E85FE30E947F1888231CF481E0FB
:10162000888B91C069897A898B899C8920E030E018
:101630004FE753E40E941F1818160CF07BC06D8909
:101640007E898F89988D20E030E04AE754E40E943B
:101650007317DC01CB018C879D87AE87BF876C85B4
:101660007D858E859F8520E030E04AE755E40E9425
:101670007916DC01CB0188879987AA87BB876885A3
:1016800079858A859B8520E030E040E85FE30E9411
:101690007F1888232CF481E090E09F838E833FC0E5
:1016A000688579858A859B8520E03FEF4FE757E481
:1016B0000E941F1818164CF56C857D858E859F85B8
:1016C00020E030E040E251E40E947916DC01CB01D9
:1016D000BC01CD010E94A314DC01CB019F838E834A
:1016E0000FC080E991E09D838C838C819D8101975F
:1016F000F1F79D838C838E819F8101979F838E83D9
:101700008E819F81009769F724C0688579858A85D5
:101710009B850E94A314DC01CB019F838E838E8165
:101720009F819B838A838A819B810197F1F79B83A9
:101730008A830FC069897A898B899C890E94A31446
:10174000DC01CB01888B8889898389818A95F1F7AF
:1017500089836A960FB6F894DEBF0FBECDBFCF91D6
:10176000DF910895DF93CF9300D0CDB7DEB7E2E0ED
:10177000F1E0108280EC6FE30E94CA0980EC60EC1B
:101780000E94CA0988EB89831B821AC080EC698198
:101790000E94CA0980EC60E40E94CA091A8207C04C
:1017A00080EC60E00E94BD0A8A818F5F8A838A8113
:1017B0008034B0F389818F5F89838B818F5F8B83C6
:1017C0008B81883018F30F900F900F90CF91DF919D
:1017D0000895DF93CF9300D00F92CDB7DEB71C8270
:1017E0001B8247C08B81982F985480EC692F0E94F0
:1017F000CA091A82198233C089819A81803491057D
:10180000A8F48B819C819C013695322F2227379535
:10181000279589819A81820F931FFC01EA59FA4F1B
:10182000908180E4692F0E94BD0A14C08B819C8145
:101830009C013695322F22273795279589819A81E9
:10184000820F931FFC01EA59FA4F908180E8692FBB
:101850000E94BD0A89819A8101969A838983898130
:101860009A818038910540F28B819C8101969C83FE
:101870008B838B819C818830910508F4B3CF0F90C6
:101880000F900F900F90CF91DF910895DF93CF933A
:1018900000D00F92CDB7DEB78A836B834C83198259
:1018A000198203C089818F5F898389818034D0F355
:1018B0000F900F900F900F90CF91DF910895DF93CD
:1018C000CF9300D00F92CDB7DEB78A836B834C8362
:1018D0001982198203C089818F5F89838981803150
:1018E000D0F30F900F900F900F90CF91DF9108954C
:1018F000DF93CF93CDB7DEB727970FB6F894DEBF4F
:101900000FBECDBF8D836E834F831C821C8234C07B
:101910008C81282F30E08D81882F90E0280F391F8F
:101920008E81882F90E09695982F88279795879598
:10193000B901680F791F44EE50E08F81282F30E005
:10194000C901880F991F880F991F280F391F8C8193
:10195000882F90E0820F931F840F951F9B838A83AB
:10196000EA81FB81849189838981FB01EA59FA4FDD
:1019700080838C818F5F8C838C81853048F22796A1
:101980000FB6F894DEBF0FBECDBFCF91DF910895A3
:10199000DF93CF9300D00F920F92CDB7DEB78A833B
:1019A0006B835D834C831982198203C089818F5FA9
:1019B000898389818032D0F30F900F900F900F9020
:1019C0000F90CF91DF910895DF93CF9300D00F92C6
:1019D0000F92CDB7DEB78A836B835D834C83198208
:1019E00020C08981282F30E0C901880F991F880FF6
:1019F000991F820F931F982F8A81292F280FEC811E
:101A0000FD818081982F9052822F6B81492F0E94F7
:101A1000780C8C819D8101969D838C8389818F5F59
:101A20008983EC81FD8180818823D9F60F900F9006
:101A30000F900F900F90CF91DF910895DF93CF9388
:101A400000D00F920F92CDB7DEB78A836B835D8390
:101A50004C8319821FC08981882F90E0880F991FBD
:101A6000880F991F880F991F982F8A81292F280F77
:101A7000EC81FD818081982F9052822F6B81492FBC
:101A80000E945F0C8C819D8101969D838C8389814E
:101A90008F5F8983EC81FD8180818823E1F60F903F
:101AA0000F900F900F900F90CF91DF9108950F93AB
:101AB0001F93DF93CF93CDB7DEB728970FB6F89477
:101AC000DEBF0FBECDBF8B836C834D832E83188703
:101AD0000F838C81898331C08B818A831DC089816A
:101AE000882F90E09C013695322F22273795279535
:101AF0008A81882F90E0820F931FEF81F8852081E3
:101B0000FC01EA59FA4F20838F81988501969887C6
:101B10008F838A818F5F8A838A81482F50E08D81ED
:101B2000282F30E08B81882F90E0820F931F481779
:101B30005907ACF289818F5F89838981482F50E0F2
:101B40008E81282F30E08C81882F90E0820F931FA8
:101B5000481759070CF228960FB6F894DEBF0FBE4F
:101B6000CDBFCF91DF911F910F910895DF93CF9358
:101B700000D000D0CDB7DEB78A836B835D834C8302
:101B80002E8319821CC08981982F9295907F8A811B
:101B9000492F480F8981882F90E09C01220F331F25
:101BA0008C819D81FC01E20FF31F20813181842F04
:101BB0006B81A9010E94C80C89818F5F89839981FB
:101BC0008E81981700F326960FB6F894DEBF0FBEED
:101BD000CDBFCF91DF910895DF93CF93CDB7DEB71F
:101BE00069970FB6F894DEBF0FBECDBF898FE2E0D4
:101BF000F1E01082E5E0F1E0898D8083E2E0F1E040
:101C000081E080830F920F90E2E0F1E0108280E0AB
:101C100090E0A8E4B2E48D8B9E8BAF8BB88F6D897A
:101C20007E898F89988D2BEA3AEA4AEA50E40E942D
:101C30007916DC01CB01898B9A8BAB8BBC8B6989C4
:101C40007A898B899C8920E030E040E85FE30E943C
:101C50007F1888231CF481E0888B91C069897A8978
:101C60008B899C8920E030E04FE753E40E941F18E5
:101C700018160CF07BC06D897E898F89988D20E0C5
:101C800030E04AE754E40E947317DC01CB018C87F3
:101C90009D87AE87BF876C857D858E859F8520E07B
:101CA00030E04AE755E40E947916DC01CB018887D1
:101CB0009987AA87BB87688579858A859B8520E077
:101CC00030E040E85FE30E947F1888232CF481E035
:101CD00090E09F838E833FC0688579858A859B8548
:101CE00020E03FEF4FE757E40E941F1818164CF50D
:101CF0006C857D858E859F8520E030E040E251E453
:101D00000E947916DC01CB01BC01CD010E94A31415
:101D1000DC01CB019F838E830FC080E991E09D831E
:101D20008C838C819D810197F1F79D838C838E81BB
:101D30009F8101979F838E838E819F81009769F792
:101D400024C0688579858A859B850E94A314DC015F
:101D5000CB019F838E838E819F819B838A838A811F
:101D60009B810197F1F79B838A830FC069897A89E8
:101D70008B899C890E94A314DC01CB01888B888904
:101D8000898389818A95F1F7898369960FB6F894DA
:101D9000DEBF0FBECDBFCF91DF910895DF93CF930C
:101DA000CDB7DEB769970FB6F894DEBF0FBECDBFD3
:101DB000898FE2E0F1E082E08083E5E0F1E0898D67
:101DC0008083E2E0F1E083E080830F920F90E2E015
:101DD000F1E082E0808380E090E0A8E4B2E48D8BC3
:101DE0009E8BAF8BB88F6D897E898F89988D2BEAFA
:101DF0003AEA4AEA50E40E947916DC01CB01898B69
:101E00009A8BAB8BBC8B69897A898B899C8920E002
:101E100030E040E85FE30E947F1888231CF481E0F3
:101E2000888B91C069897A898B899C8920E030E010
:101E30004FE753E40E941F1818160CF07BC06D8901
:101E40007E898F89988D20E030E04AE754E40E9433
:101E50007317DC01CB018C879D87AE87BF876C85AC
:101E60007D858E859F8520E030E04AE755E40E941D
:101E70007916DC01CB0188879987AA87BB8768859B
:101E800079858A859B8520E030E040E85FE30E9409
:101E90007F1888232CF481E090E09F838E833FC0DD
:101EA000688579858A859B8520E03FEF4FE757E479
:101EB0000E941F1818164CF56C857D858E859F85B0
:101EC00020E030E040E251E40E947916DC01CB01D1
:101ED000BC01CD010E94A314DC01CB019F838E8342
:101EE0000FC080E991E09D838C838C819D81019757
:101EF000F1F79D838C838E819F8101979F838E83D1
:101F00008E819F81009769F724C0688579858A85CD
:101F10009B850E94A314DC01CB019F838E838E815D
:101F20009F819B838A838A819B810197F1F79B83A1
:101F30008A830FC069897A898B899C890E94A3143E
:101F4000DC01CB01888B8889898389818A95F1F7A7
:101F5000898369960FB6F894DEBF0FBECDBFCF91CF
:101F6000DF910895DF93CF9300D0CDB7DEB789839B
:101F70007B836A8389810E94EC0D0AC0EA81FB8120
:101F800080810E94CE0E8A819B8101969B838A83E9
:101F9000EA81FB818081882389F70F900F900F9051
:101FA000CF91DF910895DF93CF93CDB7DEB72E9712
:101FB0000FB6F894DEBF0FBECDBF88E30E94EC0DD4
:101FC0008CE00E94EC0D86E00E94EC0D81E00E9406
:101FD000EC0D80E090E0A0E0B0E48B879C87AD87BB
:101FE000BE876B857C858D859E8520E030E04AE745
:101FF00055E40E947916DC01CB018F839887A9876D
:10200000BA876F81788589859A8520E030E040E83D
:102010005FE30E947F1888232CF481E090E09E8388
:102020008D833FC06F81788589859A8520E03FEF59
:102030004FE757E40E941F1818164CF56B857C85F6
:102040008D859E8520E030E040E251E40E947916C3
:10205000DC01CB01BC01CD010E94A314DC01CB014A
:102060009E838D830FC080E991E09C838B838B815D
:102070009C810197F1F79C838B838D819E810197D1
:102080009E838D838D819E81009769F714C06F8137
:10209000788589859A850E94A314DC01CB019E83F3
:1020A0008D838D819E819A83898389819A8101970D
:1020B000F1F79A8389832E960FB6F894DEBF0FBE90
:1020C000CDBFCF91DF910895DF93CF93CDB7DEB72A
:1020D000E4ECF0E083E390E091838083E0ECF0E0D7
:1020E0001082E1ECF0E088E98083E2ECF0E086E049
:1020F0008083CF91DF910895DF93CF930F92CDB777
:10210000DEB78983E0ECF0E08081882F90E0807278
:1021100090700097B9F3E6ECF0E0898180830F902E
:10212000CF91DF910895DF93CF930F920F92CDB7A8
:10213000DEB79A8389830AC0E981FA8180810E948F
:102140007C1089819A8101969A838983E981FA8139
:102150008081882389F70F900F90CF91DF910895A8
:10216000DF93CF93CDB7DEB78FEF809364051092E6
:102170006505CF91DF910895DF93CF93CDB7DEB79B
:102180000E94CB108093640580914405809365057F
:10219000CF91DF910895DF93CF9300D0CDB7DEB715
:1021A0008FEF8A838FEF8983E9E0F1E080818F6090
:1021B000898389818F3F19F010921E0303C08FEF2E
:1021C00080931E0380911E03882371F480911F0366
:1021D000882351F480914205909143050196909394
:1021E00043058093420524C080911E03882371F427
:1021F00080911F03882351F01092430510924205ED
:102200001092440589818093200312C080911E039F
:10221000882371F080911F03882341F4809120036B
:102220008A83109243051092420502C080911E03DA
:1022300080911E0380931F038A810F900F900F904F
:10224000CF91DF910895DF93CF930F920F92CDB787
:10225000DEB7198212C08DE293E025E435E066E036
:1022600070E0A9010E94A3128530910519F481E064
:102270008A8307C089818F5F898389818F3058F372
:102280001A828A810F900F90CF91DF910895DF938A
:10229000CF930F92CDB7DEB787E293E025E435E028
:1022A00066E070E0A9010E94A3128630910511F04A
:1022B000198218C081E293E025E435E066E070E021
:1022C000A9010E94A3128630910559F48091490515
:1022D000882339F480914A05813019F481E089839B
:1022E00001C0198289810F90CF91DF910895DF930A
:1022F000CF93CDB7DEB727970FB6F894DEBF0FBEEA
:10230000CDBF8B836C835E834D8381E080932D03EF
:1023100084E080932E0380E180932F038B81809350
:102320003003109231038C81809332038DE293E06D
:1023300025E435E066E070E0A9010E94A312835015
:1023400089838981282F30E08C81882F90E0880F45
:10235000991F2817390721F51A8214C08A81282F5E
:1023600030E08D819E81DC01A20FB31F8A81882F0E
:1023700090E00396FC01EB5BFA4F80818C938A819D
:102380008F5F8A838A81282F30E08C81882F90E0AC
:10239000880F991F281739070CF381E08F8301C03C
:1023A0001F828F8127960FB6F894DEBF0FBECDBF78
:1023B000CF91DF910895DF93CF9300D000D0CDB7B8
:1023C000DEB78A836B835D834C8381E080932D032A
:1023D00080E180932E0310922F038A818093300333
:1023E000109231038B81809332038B81882F90E090
:1023F000880F991F80933303198216C08981882F13
:1024000090E0AC01495F5F4F8981282F30E08C81DB
:102410009D81FC01E20FF31F8081FA01E35DFC4F17
:10242000808389818F5F89838981282F30E08B8128
:10243000882F90E0880F991F28173907FCF28B81AD
:10244000882F90E0880F991FAC01495F5F4F8DE2A4
:1024500093E025E435E0BA01A9010E94A312863079
:10246000910519F481E08E8301C01E828E8126962B
:102470000FB6F894DEBF0FBECDBFCF91DF910895A8
:10248000DF93CF93CDB7DEB728970FB6F894DEBFB2
:102490000FBECDBF9F838E8368878FEF8D838FEFB5
:1024A0008C8320C0EE81FF8190818D8189278B8371
:1024B0008E819F8101969F838E838B81882F90E0F0
:1024C000FC01E85CFC4F90818C8189278D838B8196
:1024D000882F90E0FC01E85CFB4F80818C8388852D
:1024E0008150888788858823E9F68D81882F90E040
:1024F0009A83898389819A81982F88279A838983EF
:102500008C81282F30E089819A81822B932B289609
:102510000FB6F894DEBF0FBECDBFCF91DF91089507
:10252000DF93CF930F920F92CDB7DEB79A83898353
:1025300089819A8190933905809338050F900F9087
:10254000CF91DF9108950F931F93DF93CF93CDB772
:10255000DEB7A7970FB6F894DEBF0FBECDBF9BA323
:102560008AA36CA35EA34DA38EE1FE013496DF0126
:10257000982F1D929A95E9F719828CA18A3F10F045
:102580001FA2C9C0198215C08981482F50E08981D6
:10259000282F30E08AA19BA1FC01E20FF31F2081CC
:1025A000CE010496FC01E40FF51F208389818F5F23
:1025B000898399818CA1981738F38981282F30E07D
:1025C000CE010496B9010E9440129B838A838981BF
:1025D000282F30E08A819B81892F9927482FCE01AF
:1025E0000496FC01E20FF31F40838981882F90E05D
:1025F0009C012F5F3F4F4A81CE010496FC01E20F00
:10260000F31F408319820EC08981282F30E0CE014C
:102610000496FC01E20FF31F80810E94AF138981B1
:102620008F5F89838981282F30E08CA1882F90E0EB
:1026300002962817390744F30E9462140E948814F6
:102640008823E1F30E9462140E9488148823E1F336
:1026500019820FC08981282F30E08DA19EA18C01A5
:10266000020F131F0E94C613D8018C9389818F5FBC
:1026700089830E940214882369F78981882331F4B1
:10268000809167098F5F8093670908C089818130D5
:1026900029F4809166098F5F809366098981823071
:1026A000C8F18981882F90E09C01225030408DA193
:1026B0009EA1B9010E9440129B838A838A819B81DB
:1026C000892F9927482F8981882F90E09C012250DB
:1026D00030408DA19EA1FC01E20FF31F80814817BD
:1026E000A1F44A818981882F90E09C0121503040DB
:1026F0008DA19EA1FC01E20FF31F8081481729F4F0
:102700008981B82FB250BFA306C0809166098F5F40
:10271000809366091FA28FA1A7960FB6F894DEBF1B
:102720000FBECDBFCF91DF911F910F910895DF9321
:10273000CF93CDB7DEB7E4ECF0E083E390E0918394
:102740008083E0ECF0E01082E1ECF0E088E9808347
:10275000E2ECF0E086E08083CF91DF910895DF9393
:10276000CF930F92CDB7DEB78983E0ECF0E08081A4
:10277000882F90E0807290700097B9F3E6ECF0E05B
:10278000898180830F90CF91DF910895DF93CF935C
:102790000F920F92CDB7DEB780915E0590915F05E5
:1027A000009711F41A8228C080915A0590915B0518
:1027B000FC01E05BFA4F8081898380915A059091FA
:1027C0005B05019690935B0580935A0580915E05A9
:1027D00090915F05019790935F0580935E058091CE
:1027E0005A0590915B058A30910521F410925B05A2
:1027F00010925A0589818A838A810F900F90CF9118
:10280000DF910895DF93CF930F92CDB7DEB780911C
:102810005E0590915F05009711F4198202C081E076
:10282000898389810F90CF91DF9108951F920F9234
:102830000FB60F9200905B000F9211242F938F938D
:102840009F93EF93FF93DF93CF93CDB7DEB7809144
:102850005C0590915D05E6ECF0E02081FC01E05B19
:10286000FA4F208380915E0590915F0501969093C9
:102870005F0580935E0580915C0590915D050196F2
:1028800090935D0580935C0580915C0590915D055A
:102890008A30910521F410925D0510925C05E4E800
:1028A000F0E011821082CF91DF91FF91EF919F9123
:1028B0008F912F910F9000925B000F900FBE0F90A1
:1028C0001F901895DF93CF93CDB7DEB7E0E8F0E027
:1028D0001082E1E8F0E08CE08083E2E8F0E0108232
:1028E000E4E8F0E011821082E8E8F0E083E294EF9F
:1028F00091838083EFE6F0E01082E6E3F0E08FE280
:10290000808310926B0910926A09CF91DF9108952C
:10291000DF93CF930F92CDB7DEB7E6E3F0E080818F
:10292000882F90E082709070009739F0E6E3F0E035
:102930008FE2808381E0898301C0198289810F90B1
:10294000CF91DF910895EF92FF920F931F937B0138
:102950008C0120E030E040E05FE40E944F188823C3
:102960008CF0C801B70120E030E040E05FE40E9455
:102970001B160E94AF189B01AC0120503040404014
:10298000504806C0C801B7010E94AF189B01AC01B6
:10299000B901CA011F910F91FF90EF900895A0E037
:1029A000B0E0E5EDF4E10C94A91ADC012B01FA0189
:1029B0009C91923008F439C1EB018881823008F48F
:1029C00033C1943069F4843009F02FC111969C9181
:1029D00011978981981709F428C1AAE3B5E025C1A8
:1029E000843009F421C18230A9F4923009F01DC16C
:1029F0009A01AD0188E0EA010990AE01E90109926E
:102A00009E018150C1F7E201898111969C91892331
:102A1000818308C1923009F407C112962D903C9031
:102A20001397EB018A819B811496AD90BD90CD9058
:102A3000DC901797EC80FD800E811F819101281B8F
:102A4000390BB90137FF04C066277727621B730B68
:102A5000603271050CF061C0121613066CF5370177
:102A60004801062E04C096948794779467940A943C
:102A7000D2F721E030E040E050E004C0220F331FE5
:102A8000441F551F6A95D2F72150304040405040B6
:102A90002E213F21402351232115310541055105A8
:102AA00021F021E030E040E050E079018A01E628A1
:102AB000F728082919293CC0232BD1F1260E371EEF
:102AC00035014601062E04C0969487947794679446
:102AD0000A94D2F721E030E040E050E004C0220F39
:102AE000331F441F551F6A95D2F721503040404094
:102AF00050402A213B214C215D2121153105410502
:102B0000510521F021E030E040E050E059016A0138
:102B1000A628B728C828D9280BC0821593052CF001
:102B20001C01AA24BB24650103C0EE24FF248701F5
:102B300011969C91D20111968C91981709F445C079
:102B4000992339F0A80197012A193B094C095D091D
:102B500006C0A60195012E193F09400B510B57FDE8
:102B600008C01182338222822483358346835783AF
:102B70001DC081E081833382228288279927DC016E
:102B8000821B930BA40BB50B84839583A683B78319
:102B90000DC0220F331F441F551F248335834683E6
:102BA0005783828193810197938382832481358126
:102BB00046815781DA01C9010197A109B1098F5FE7
:102BC0009F4FAF4FBF4328F30BC0918333822282C4
:102BD000EA0CFB1C0C1D1D1DE482F5820683178385
:102BE00083E08083248135814681578157FF1AC055
:102BF000C901AA2797FDA095BA2F81709070A07087
:102C0000B0705695479537952795822B932BA42B1B
:102C1000B52B84839583A683B783828193810196A4
:102C200093838283DF0101C0D201CD01CDB7DEB72E
:102C3000E2E10C94C51AA0E2B0E0E1E2F6E10C9406
:102C4000B51A69837A838B839C832D833E834F835C
:102C50005887E9E0EE2EF12CEC0EFD1ECE01019618
:102C6000B7010E94D8198E010F5E1F4FCE01059645
:102C7000B8010E94D8198A8991E089278A8BC701F7
:102C8000B801AE01475E5F4F0E94CF140E94031946
:102C9000A096E6E00C94D11AA0E2B0E0E2E5F6E1FD
:102CA0000C94B51A69837A838B839C832D833E832E
:102CB0004F835887F9E0EF2EF12CEC0EFD1ECE016C
:102CC0000196B7010E94D8198E010F5E1F4FCE01E9
:102CD0000596B8010E94D819C701B801AE01475E38
:102CE0005F4F0E94CF140E940319A096E6E00C9457
:102CF000D11AA0E2B0E0EFE7F6E10C94A91A6983DB
:102D00007A838B839C832D833E834F835887CE01A8
:102D10000196BE01675F7F4F0E94D819CE010596CC
:102D2000BE016F5E7F4F0E94D8199985923088F05E
:102D300089898230C8F0943019F4823051F404C08B
:102D4000843029F4923081F48AE395E0C6C0923051
:102D500049F420E09A858A89981321E02A87CE01D8
:102D60000996BBC0823049F420E09A858A8998137D
:102D700021E02A8BCE014196B0C02D843E844F8441
:102D800058886D887E888F88988CEE24FF24870170
:102D9000AA24BB24650140E050E060E070E0E0E080
:102DA000F0E0C10181709070892BE9F0E60CF71C0E
:102DB000081D191D9A01AB012A0D3B1D4C1D5D1DFF
:102DC00080E090E0A0E0B0E0E614F7040805190503
:102DD00020F481E090E0A0E0B0E0BA01A901480F42
:102DE000591F6A1F7B1FAA0CBB1CCC1CDD1C97FE45
:102DF00008C081E090E0A0E0B0E0A82AB92ACA2A81
:102E0000DB2A3196E032F10549F0660C771C881C0C
:102E1000991C5694479437942794C3CFFA85EA892E
:102E20002B893C898B859C85280F391F2E5F3F4F4E
:102E300017C0CA0181709070892B61F016950795B3
:102E4000F794E79480E090E0A0E0B0E8E82AF92A5F
:102E50000A2B1B2B76956795579547952F5F3F4F0C
:102E600077FDE7CF0CC0440F551F661F771F17FD76
:102E70004160EE0CFF1C001F111F215030404030FC
:102E800090E0590790E0690790E4790760F32B8F91
:102E90003C8FDB01CA018F779070A070B0708034D6
:102EA0009105A105B10561F447FD0AC0E114F104E3
:102EB0000105110529F0405C5F4F6F4F7F4F40784F
:102EC0001A8EFE1711F081E08A8F4D8F5E8F6F8F03
:102ED00078A383E0898FCE0149960E940319A096BA
:102EE000E2E10C94C51AA8E1B0E0E9E7F7E10C943F
:102EF000B11A69837A838B839C832D833E834F83AE
:102F00005887B9E0EB2EF12CEC0EFD1ECE01019698
:102F1000B7010E94D8198E010F5E1F4FCE01059692
:102F2000B8010E94D8192985223008F47EC0398959
:102F3000323010F4B8017CC08A859A8989278A8743
:102F4000243011F0223031F4231709F06EC06AE307
:102F500075E06EC0343039F41D861E861F86188ACF
:102F60001C861B8604C0323021F484E08987B701B7
:102F70005FC02B853C858B899C89281B390B3C873E
:102F80002B87ED84FE840F851889AD88BE88CF8895
:102F9000D88CEA14FB040C051D0540F4EE0CFF1C54
:102FA000001F111F215030403C872B8720E030E06C
:102FB00040E050E080E090E0A0E0B0E460E070E04D
:102FC000EA14FB040C051D0540F0282B392B4A2B75
:102FD0005B2BEA18FB080C091D09B695A795979578
:102FE0008795EE0CFF1C001F111F6F5F7F4F6F3125
:102FF000710531F7DA01C9018F779070A070B07058
:1030000080349105A105B10561F427FD0AC0E114E2
:10301000F1040105110529F0205C3F4F4F4F5F4F30
:1030200020782D873E874F87588BBE01675F7F4F83
:10303000CB010E9403196896EAE00C94CD1AA8E12E
:10304000B0E0E5E2F8E10C94B51A69837A838B83EA
:103050009C832D833E834F83588789E0E82EF12C93
:10306000EC0EFD1ECE010196B7010E94D8198E010B
:103070000F5E1F4FCE010596B8010E94D8198985B1
:10308000823040F08989823028F0C701B8010E945F
:10309000501A01C08FEF6896E6E00C94D11AA8E1AF
:1030A000B0E0E5E5F8E10C94B51A69837A838B8387
:1030B0009C832D833E834F83588789E0E82EF12C33
:1030C000EC0EFD1ECE010196B7010E94D8198E01AB
:1030D0000F5E1F4FCE010596B8010E94D819898551
:1030E000823040F08989823028F0C701B8010E94FF
:1030F000501A01C08FEF6896E6E00C94D11AA8E14F
:10310000B0E0E5E8F8E10C94B51A69837A838B8323
:103110009C832D833E834F83588789E0E82EF12CD2
:10312000EC0EFD1ECE010196B7010E94D8198E014A
:103130000F5E1F4FCE010596B8010E94D8198985F0
:10314000823040F08989823028F0C701B8010E949E
:10315000501A01C081E06896E6E00C94D11AACE008
:10316000B0E0E5EBF8E10C94B91A69837A838B83BC
:103170009C83CE010196BE016B5F7F4F0E94D819E0
:103180008D81823061F1823050F1843021F48E8162
:10319000882351F12EC02F81388537FD20C06E81E4
:1031A0002F3131051CF06623F9F023C08EE190E049
:1031B000821B930B29853A854B855C8504C0569507
:1031C0004795379527958A95D2F76623B1F05095A4
:1031D0004095309521953F4F4F4F5F4F0EC020E0F7
:1031E00030E040E050E009C02FEF3FEF4FEF5FE7E6
:1031F00004C020E030E040E050E8B901CA012C965C
:10320000E2E00C94D51ADF92EF92FF920F931F9396
:10321000FC01E480F58006811781D18080818230B5
:1032200048F480E090E0A0E1B0E0E82AF92A0A2B17
:103230001B2BA5C0843009F49FC0823021F4EE24FA
:10324000FF24870105C0E114F1040105110519F4FB
:10325000E0E0F0E096C0628173819FEF6238790709
:103260000CF05BC022E83FEF261B370B2A313105FB
:103270002CF020E030E040E050E02AC0B801A70187
:10328000022E04C076956795579547950A94D2F714
:1032900081E090E0A0E0B0E004C0880F991FAA1F71
:1032A000BB1F2A95D2F70197A109B1098E219F2151
:1032B000A023B1230097A105B10521F081E090E0A2
:1032C000A0E0B0E09A01AB01282B392B4A2B5B2BF5
:1032D000DA01C9018F779070A070B07080349105C9
:1032E000A105B10539F427FF09C0205C3F4F4F4FBE
:1032F0005F4F04C0215C3F4F4F4F5F4FE0E0F0E075
:103300002030A0E03A07A0E04A07A0E45A0710F0F6
:10331000E1E0F0E079018A0127C06038710564F5C9
:10332000FB01E158FF4FD801C7018F779070A07063
:10333000B07080349105A105B10539F4E7FE0DC0E8
:1033400080E490E0A0E0B0E004C08FE390E0A0E073
:10335000B0E0E80EF91E0A1F1B1F17FF05C01695E7
:103360000795F794E794319687E016950795F794BB
:10337000E7948A95D1F705C0EE24FF248701EFEF8B
:10338000F0E06E2F679566276795902F9F77D7940B
:10339000DD24D7948E2F8695492F462B582F5D29F3
:1033A000B701CA011F910F91FF90EF90DF90089530
:1033B000FC01DB01408151812281622F6F7770E037
:1033C000221F2227221F9381892F880F822B282FCB
:1033D00030E0991F9927991F11969C9311972115F9
:1033E0003105A9F5411551056105710511F482E01A
:1033F00037C082E89FEF13969C938E9312979A01A1
:10340000AB0167E0220F331F441F551F6A95D1F7A8
:1034100083E08C930DC0220F331F441F551F12965B
:103420008D919C911397019713969C938E9312976D
:10343000203080E0380780E0480780E4580758F3E0
:1034400014962D933D934D935C93179708952F3FBA
:10345000310579F4411551056105710519F484E0D0
:103460008C93089564FF03C081E08C9312C01C927A
:1034700010C02F57304013963C932E93129783E041
:103480008C9387E0440F551F661F771F8A95D1F7ED
:10349000706414964D935D936D937C931797089584
:1034A0001F93DC01FB019C91923008F447C080819E
:1034B000823008F443C0943051F411961C9184304A
:1034C00099F58181682F70E0611B71093FC08430DC
:1034D00021F0923031F48230B9F18181882389F171
:1034E0002DC011961C9111978230F1F0818118172F
:1034F000D9F412962D913C91139782819381821772
:10350000930794F028173907BCF014968D919D917C
:103510000D90BC91A02D24813581468157812817BB
:1035200039074A075B0718F4112341F00AC08217D4
:103530009307A407B50740F4112319F061E070E088
:1035400005C06FEF7FEF02C060E070E0CB011F911C
:1035500008952F923F924F925F926F927F928F9237
:103560009F92AF92BF92CF92DF92EF92FF920F9312
:103570001F93CF93DF93CDB7DEB7CA1BDB0B0FB61C
:10358000F894DEBF0FBECDBF19942A8839884888C9
:103590005F846E847D848C849B84AA84B984C8846F
:1035A000DF80EE80FD800C811B81AA81B981CE0F66
:1035B000D11D0FB6F894DEBF0FBECDBFED0108954B
:0435C000F894FFCFAD
:1035C4002020202053454F484F20454C45432E2072
:1035D400323536304B4954202000202042274420E5
:1035E400544553542050726F6772616D2056312ECA
:1035F40030202000202020202020202020202020D7
:1036040020202020202020202020202020002020D6
:10361400202D2043414E4F50454E20434F4D4D20C9
:1036240054455354202D00202020202020202032D7
:103634003031302F30372F323020202020202020EE
:10364400002020202020202050726F6772616D6559
:103654006420627920202020202000202020506136
:10366400756C204279756E672D48756E20506172B5
:103674006B202020004B4559202D3E202020200087
:103684002020202020202020202020202020202036
:10369400004175746F42617564206661756C7421B4
:1036A400004175746F4261756420646F6E6521001A
:1036B400536574204D6F6465204661756C742100F8
:1036C400536574204D6F646520646F6E65210052EC
:1036D400656164204661756C742121212100FFFF1E
:1036E400FF010450010001010650010001010350D3
:1036F400010001000000000000C1814001C08041C0
:1037040001C0804100C1814001C0804100C18140AD
:1037140000C1814001C0804101C0804100C181409D
:1037240000C1814001C0804100C1814001C080418D
:1037340001C0804100C1814001C0804100C181407D
:1037440000C1814001C0804100C1814001C080416D
:1037540001C0804100C1814000C1814001C080415D
:1037640001C0804100C1814001C0804100C181404D
:1037740000C1814001C0804101C0804100C181403D
:1037840000C1814001C0804100C1814001C080412D
:1037940001C0804100C1814000C1814001C080411D
:1037A40001C0804100C1814001C0804100C181400D
:1037B40000C1814001C0804100C1814001C08041FD
:1037C40001C0804100C1814001C0804100C18140ED
:1037D40000C1814001C0804101C0804100C18140DD
:1037E40000C1814001C0804100C1814001C08041CD
:1037F40001C0804100C1814000C0C101C30302C2B5
:10380400C60607C705C5C404CC0C0DCD0FCFCE0E1C
:103814000ACACB0BC90908C8D81819D91BDBDA1A8C
:103824001EDEDF1FDD1D1CDC14D4D515D71716D6FC
:10383400D21213D311D1D010F03031F133F3F2326C
:1038440036F6F737F53534F43CFCFD3DFF3F3EFEDC
:10385400FA3A3BFB39F9F83828E8E929EB2B2AEA4C
:10386400EE2E2FEF2DEDEC2CE42425E527E7E626BC
:1038740022E2E323E12120E0A06061A163A3A2622C
:1038840066A6A767A56564A46CACAD6DAF6F6EAE9C
:10389400AA6A6BAB69A9A86878B8B979BB7B7ABA0C
:1038A400BE7E7FBF7DBDBC7CB47475B577B7B6767C
:1038B40072B2B373B17170B05090915193535292EC
:1038C40096565797559594549C5C5D9D5F9F9E5E5C
:1038D4005A9A9B5B99595898884849894B8B8A4ACC
:1038E4004E8E8F4F8D4D4C8C44848545874746863C
:1038F400824243834181804060EA0000000000006E
:023904000000C1
:00000001FF
