:100000000C9472010C948F010C948F010C948F014D
:100010000C948F010C948F010C948F010C948F0120
:100020000C948F010C948F010C948F010C948F0110
:100030000C948F010C948F010C948F010C948F0100
:100040000C948F010C948F010C948F010C948F01F0
:100050000C948F010C948F010C948F010C948F01E0
:100060000C948F010C94D90F0C948F010C948F0178
:100070000C948F010C948F010C948F010C948F01C0
:100080000C948F010C948F010C948F010C948F01B0
:100090000C948F010C948F010C948F010C948F01A0
:1000A0000C948F010C948F010C948F010C948F0190
:1000B0000C948F010C948F010C948F010C948F0180
:1000C0000C948F010C948F010C948F010C948F0170
:1000D0000C948F010C948F010C948F010C948F0160
:1000E0000C948F01000000000000004F000000078A
:1000F000000700147F147F14242A7F2A1223130878
:10010000646236495522500005030000001C22415C
:10011000000041221C0014083E081408083E08088C
:100120000050300000080808080800606000002047
:10013000100804023E5149453E00427F40004261A2
:100140005149462141454B311814127F102745452E
:1001500045393C4A49493001710905033649494945
:1001600036064949291E0036360000005636000082
:10017000081422410014141414140041221408021B
:1001800001510906324979413E7E1111117E7F49A4
:100190004949363E414141227F4141221C7F494924
:1001A00049417F090909013E4149497A7F08080808
:1001B0007F00417F41002040413F017F08142241E0
:1001C0007F404040407F020C027F7F0408107F3E4A
:1001D0004141413E7F090909063E4151215E7F09A7
:1001E000192946264949493201017F01013F404012
:1001F000403F1F2040201F3F4038403F63140814F9
:100200006307087008076151494543007F41410079
:1002100002040810200041417F0004020102044052
:1002200040404040000102040020545454787F486C
:100230004444383844444420384444487F38545473
:100240005418087E0901020C5252523E7F080404E1
:100250007800047D00002040443D007F10284400C9
:1002600000417F40007C0418047C7C08040478383A
:10027000444444387C14141408081414187C7C0872
:100280000404084854545420043F4440203C404057
:10029000207C1C2040201C3C4030403C442810283E
:1002A000440C5050503C4464544C440008364100C7
:1002B000000077000000413608000804081008001C
:1002C000000000000000000000000000000000002E
:1002D000000000000000000000000000000000001E
:1002E0000000000011241FBECFEFD1E2DEBFCDBF62
:1002F00015E0A0E0B2E0EEE1FDE200E00BBF02C0DD
:1003000007900D92AC31B107D9F719E0ACE1B5E037
:1003100001C01D92A634B107E1F70C94CA010C94F8
:100320000000CF93DF93CDB7DEB7E4E7F0E081ECD8
:100330008083E5E7F0E080E88083E4E2F0E08FEF9F
:100340008083E5E2F0E01082EDE2F0E08CE0808373
:10035000EEE2F0E01082E1E0F1E08FEF8083E2E096
:10036000F1E01082E4E0F1E08FEF8083E5E0F1E07E
:100370001082E7E0F1E08FEF8083E8E0F1E01082A7
:10038000EAE0F1E08FE08083EBE0F1E01082DF91C2
:10039000CF9108950F931F93CF93DF93CDB7DEB71F
:1003A000C258D0400FB6F894DEBF0FBECDBFFE01DD
:1003B000E458FF4F1082FE01E558FF4F1082FE0106
:1003C000E658FF4F1082FE01E758FF4F10820E944F
:1003D0009101FE01E159FF4F80E090E0A8E4B2E412
:1003E00080839183A283B3838E010B581F4FFE013C
:1003F000E159FF4F20E030E04AE755E46081718128
:10040000828193810E941E12DC01CB01F80180835E
:100410009183A283B383FE01EB58FF4F20E030E0CD
:1004200040E85FE360817181828193810E94A8131B
:1004300088230CF008C0FE01ED58FF4F81E090E0EA
:100440009183808327C0FE01EB58FF4F20E03FEFF0
:100450004FE757E460817181828193810E943C1350
:1004600018160CF006C0FE01ED58FF4F11821082E5
:1004700011C08E010D581F4FFE01EB58FF4F6081D8
:100480007181828193810E946D10DC01CB01F801A2
:1004900091838083DE01A359BF4FFE01ED58FF4FCA
:1004A000808191818D939C93FE01E359FF4F808160
:1004B00091810197F1F7FE01E359FF4F918380830A
:1004C0000E944C0B0E94F90780E092E0AC0160E0D2
:1004D00080E00E9446098AE192E0AC0161E080E0A0
:1004E0000E94460984E392E0AC0162E080E00E9451
:1004F00046098EE492E0AC0163E080E00E94460988
:1005000087E692E0AC0164E080E00E94460984E363
:1005100092E0AC0165E080E00E94460981E892E04B
:10052000AC0166E080E00E9446098BE992E0AC01F4
:1005300067E080E00E9446090E94380885EB92E05F
:10054000BC0180E80E94230B86EC92E0BC0180ECA9
:100550000E94230B0E94360F78940E94900CFE019B
:10056000E358FF4F8083FE01E358FF4F80818823CB
:1005700039F487ED92E0BC0180EC0E94230BFFCFA1
:10058000FE01ED59FF4F80E090E0AAEFB3E48083D5
:100590009183A283B3838E0107591F4FFE01ED594A
:1005A000FF4F20E030E04AE755E4608171818281AD
:1005B00093810E941E12DC01CB01F801808391839C
:1005C000A283B383FE01E759FF4F20E030E040E80B
:1005D0005FE360817181828193810E94A8138823E7
:1005E0000CF008C0FE01E959FF4F81E090E09183D3
:1005F000808327C0FE01E759FF4F20E03FEF4FE720
:1006000057E460817181828193810E943C131816A6
:100610000CF006C0FE01E959FF4F1182108211C093
:100620008E0109591F4FFE01E759FF4F608171810B
:10063000828193810E946D10DC01CB01F8019183CE
:100640008083DE01AF59BF4FFE01E959FF4F808122
:1006500091818D939C93FE01EF59FF4F8081918191
:100660000197F1F7FE01EF59FF4F91838083FE015F
:10067000E95AFF4F80E090E0AAEFB3E480839183D2
:10068000A283B3838E01035A1F4FFE01E95AFF4F25
:1006900020E030E04AE755E46081718182819381F6
:1006A0000E941E12DC01CB01F80180839183A2839A
:1006B000B383FE01E35AFF4F20E030E040E85FE300
:1006C00060817181828193810E94A81388230CF03C
:1006D00008C0FE01E55AFF4F81E090E091838083DE
:1006E00027C0FE01E35AFF4F20E03FEF4FE757E4FA
:1006F00060817181828193810E943C1318160CF0F5
:1007000006C0FE01E55AFF4F1182108211C08E0112
:10071000055A1F4FFE01E35AFF4F608171818281AC
:1007200093810E946D10DC01CB01F80191838083DD
:10073000DE01AB5ABF4FFE01E55AFF4F8081918128
:100740008D939C93FE01EB5AFF4F8081918101971D
:10075000F1F7FE01EB5AFF4F91838083FE01E55BC9
:10076000FF4F80E090E0AAEFB3E480839183A283FF
:10077000B3838E010F5A1F4FFE01E55BFF4F20E050
:1007800030E04AE755E460817181828193810E9463
:100790001E12DC01CB01F80180839183A283B38315
:1007A000FE01EF5AFF4F20E030E040E85FE3608158
:1007B0007181828193810E94A81388230CF008C064
:1007C000FE01E15BFF4F81E090E09183808327C0D1
:1007D000FE01EF5AFF4F20E03FEF4FE757E4608103
:1007E0007181828193810E943C1318160CF006C01F
:1007F000FE01E15BFF4F1182108211C08E01015B8F
:100800001F4FFE01EF5AFF4F6081718182819381FA
:100810000E946D10DC01CB01F80191838083DE0121
:10082000A75BBF4FFE01E15BFF4F808191818D93FC
:100830009C93FE01E75BFF4F808191810197F1F767
:10084000FE01E75BFF4F91838083FE01FF9680E00E
:1008500090E0AAEFB3E480839183A283B3838E01F7
:100860000B5B1F4FFE01FF9620E030E04AE755E4A6
:1008700060817181828193810E941E12DC01CB0113
:10088000F80180839183A283B383FE01EB5BFF4F6A
:1008900020E030E040E85FE36081718182819381F4
:1008A0000E94A81388230CF008C0FE01ED5BFF4FE7
:1008B00081E090E09183808327C0FE01EB5BFF4FD6
:1008C00020E03FEF4FE757E460817181828193819F
:1008D0000E943C1318160CF006C0FE01ED5BFF4FA2
:1008E0001182108211C08E010D5B1F4FFE01EB5B68
:1008F000FF4F60817181828193810E946D10DC01C4
:10090000CB01F80191838083FE01ED5BFF4F808175
:1009100091819EAF8DAF8DAD9EAD0197F1F79EAFEA
:100920008DAF0E94C10C882339F087EE92E0BC01A4
:1009300080EC0E94230BFFCF80E090E0AAEFB3E4AD
:100940008BAB9CABADABBEAB20E030E04AE755E4EF
:100950006BA97CA98DA99EA90E941E12DC01CB0166
:1009600089AF9AAFABAFBCAF20E030E040E85FE3C7
:1009700069AD7AAD8BAD9CAD0E94A81388230CF0B5
:1009800005C081E090E098AF8FAB1AC020E03FEF48
:100990004FE757E469AD7AAD8BAD9CAD0E943C1337
:1009A00018160CF003C018AE1FAA0AC069AD7AADC4
:1009B0008BAD9CAD0E946D10DC01CB0198AF8FAB6D
:1009C0008FA998AD9AAB89AB89A99AA90197F1F73C
:1009D0009AAB89AB80E090E0AAEFB3E48FA398A72D
:1009E000A9A7BAA720E030E04AE755E46FA178A5AF
:1009F00089A59AA50E941E12DC01CB018DA79EA796
:100A0000AFA7B8AB20E030E040E85FE36DA57EA57E
:100A10008FA598A90E94A81388230CF005C081E037
:100A200090E09CA78BA71AC020E03FEF4FE757E468
:100A30006DA57EA58FA598A90E943C1318160CF0F1
:100A400003C01CA61BA60AC06DA57EA58FA598A9EC
:100A50000E946D10DC01CB019CA78BA78BA59CA5E8
:100A60009EA38DA38DA19EA10197F1F79EA38DA3B7
:100A700080E090E0AAEFB3E48B8F9C8FAD8FBE8FA8
:100A800020E030E04AE755E46B8D7C8D8D8D9E8DA6
:100A90000E941E12DC01CB0189A39AA3ABA3BCA3C5
:100AA00020E030E040E85FE369A17AA18BA19CA13E
:100AB0000E94A81388230CF005C081E090E098A361
:100AC0008F8F1AC020E03FEF4FE757E469A17AA16A
:100AD0008BA19CA10E943C1318160CF003C018A215
:100AE0001F8E0AC069A17AA18BA19CA10E946D10E2
:100AF000DC01CB0198A38F8F8F8D98A19A8F898F5E
:100B0000898D9A8D0197F1F79A8F898F80E090E017
:100B1000AAEFB3E48F87988BA98BBA8B20E030E0E3
:100B20004AE755E46F85788989899A890E941E125F
:100B3000DC01CB018D8B9E8BAF8BB88F20E030E03A
:100B400040E85FE36D897E898F89988D0E94A813A4
:100B500088230CF005C081E090E09C8B8B8B1AC041
:100B600020E03FEF4FE757E46D897E898F89988DAC
:100B70000E943C1318160CF003C01C8A1B8A0AC082
:100B80006D897E898F89988D0E946D10DC01CB0163
:100B90009C8B8B8B8B899C899E878D878D859E8571
:100BA0000197F1F79E878D8700C00E94220C8091EB
:100BB0003E058F3FD1F380913E050E944E0F80ECA1
:100BC0000E944D0A80913E0582958F708A3040F4D4
:100BD00080913E0582958F70805D0E94B70A07C0A4
:100BE00080913E0582958F70895C0E94B70A81ECE6
:100BF0000E944D0A80913E0599278F7090708A302F
:100C000091053CF480913E058F70805D0E94B70A8B
:100C100006C080913E058F70895C0E94B70AFE0174
:100C2000E158FF4F8BEA8083FE01E158FF4F8DECC6
:100C30008183CE0181589F4FAC0161E080E00E942A
:100C4000680D80E090E0AAEFB3E48B839C83AD83D2
:100C5000BE8320E030E04AE755E46B817C818D81E2
:100C60009E810E941E12DC01CB0189879A87AB8787
:100C7000BC8720E030E040E85FE369857A858B85BA
:100C80009C850E94A81388230CF005C081E090E0A9
:100C900098878F831AC020E03FEF4FE757E46985BC
:100CA0007A858B859C850E943C1318160CF003C036
:100CB00018861F820AC069857A858B859C850E946B
:100CC0006D10DC01CB0198878F838F8198859A8383
:100CD000898389819A810197F1F79A838983CE016B
:100CE0008F579F4FAC0161E080E00E94020DFE0132
:100CF000E358FF4F8083FE01E358FF4F8081882334
:100D000009F453CF80EC0E944D0AFE01EF57FF4FCC
:100D1000808182958F708A3050F4FE01EF57FF4F2B
:100D2000808182958F70805D0E94B70A09C0FE01A4
:100D3000EF57FF4F808182958F70895C0E94B70AC0
:100D400081EC0E944D0AFE01EF57FF4F80819927E9
:100D50008F7090708A3091054CF4FE01EF57FF4F71
:100D600080818F70805D0E94B70A08C0FE01EF5736
:100D7000FF4F80818F70895C0E94B70A82EC0E94CD
:100D80004D0AFE01EF57FF4F818182958F708A30A7
:100D900050F4FE01EF57FF4F818182958F70805D87
:100DA0000E94B70A09C0FE01EF57FF4F818182956B
:100DB0008F70895C0E94B70A83EC0E944D0AFE0185
:100DC000EF57FF4F818199278F7090708A3091057E
:100DD0004CF4FE01EF57FF4F81818F70805D0E94C0
:100DE000B70AE3CEFE01EF57FF4F81818F70895C18
:100DF0000E94B70ADACECF93DF93CDB7DEB72C9738
:100E00000FB6F894DEBF0FBECDBF8B876C87E2E0D4
:100E1000F1E090EC8B85892380830F920F900F92E5
:100E20000F90E5E0F1E08C858083E2E0F1E09B85C6
:100E300080EC8923806280830F920F900F920F9035
:100E4000E2E0F1E090EC8B85892380830000E2E012
:100E5000F1E0108280E090E0A0E2B1E48A839B831D
:100E6000AC83BD832BEA3AEA4AEA50E46A817B818B
:100E70008C819D810E941E12DC01CB018F8398879B
:100E8000A987BA8720E030E040E85FE36F8178858A
:100E900089859A850E94A81388230CF003C081E0FD
:100EA0008E8318C020E030E04FE753E46F817885EF
:100EB00089859A850E943C1318160CF002C01E8288
:100EC00009C06F81788589859A850E946D10DC0143
:100ED000CB018E838E81898389818A95F1F78983FD
:100EE0002C960FB6F894DEBF0FBECDBFDF91CF9129
:100EF0000895CF93DF93CDB7DEB72C970FB6F89454
:100F0000DEBF0FBECDBF8B876C87E2E0F1E09B8533
:100F100080EC8923806180830F920F900F920F9055
:100F2000E5E0F1E08C858083E2E0F1E09B8580ECF8
:100F30008923806380830F920F900F920F90E2E0DD
:100F4000F1E09B8580EC8923806180830000E2E0F2
:100F5000F1E0108280E090E0A0E2B1E48A839B831C
:100F6000AC83BD832BEA3AEA4AEA50E46A817B818A
:100F70008C819D810E941E12DC01CB018F8398879A
:100F8000A987BA8720E030E040E85FE36F81788589
:100F900089859A850E94A81388230CF003C081E0FC
:100FA0008E8318C020E030E04FE753E46F817885EE
:100FB00089859A850E943C1318160CF002C01E8287
:100FC00009C06F81788589859A850E946D10DC0142
:100FD000CB018E838E81898389818A95F1F78983FC
:100FE0002C960FB6F894DEBF0FBECDBFDF91CF9128
:100FF0000895CF93DF93CDB7DEB723970FB6F8945C
:10100000DEBF0FBECDBFE2E0F1E010826FE380EC07
:101010000E94FB0660EC80EC0E94FB0688EB898353
:101020001B821AC0698180EC0E94FB0660E480ECA0
:101030000E94FB061A8207C060E080EC0E947907DC
:101040008A818F5F8A838A818034B0F389818F5F40
:1010500089838B818F5F8B838B81883018F32396F4
:101060000FB6F894DEBF0FBECDBFDF91CF910895CC
:10107000CF93DF93CDB7DEB724970FB6F894DEBFDA
:101080000FBECDBF1C821B8246C08B818854682F47
:1010900080EC0E94FB061A82198233C089819A81F2
:1010A00080349105A8F48B819C819C013695322F68
:1010B00022273795279589819A81820F931FFC01FA
:1010C000E05CFA4F8081682F80E40E94790714C0A9
:1010D0008B819C819C013695322F2227379527954D
:1010E00089819A81820F931FFC01E05CFA4F808115
:1010F000682F80E80E94790789819A8101969A83F6
:10110000898389819A818038910540F28B819C8105
:1011100001969C838B838B819C818830910508F498
:10112000B4CF24960FB6F894DEBF0FBECDBFDF91CB
:10113000CF910895CF93DF93CDB7DEB724970FB645
:10114000F894DEBF0FBECDBF8A836B834C831982B8
:10115000198203C089818F5F898389818034D0F3AC
:1011600024960FB6F894DEBF0FBECDBFDF91CF91AE
:101170000895CF93DF93CDB7DEB724970FB6F894D9
:10118000DEBF0FBECDBF8A836B834C831982198269
:1011900003C089818F5F898389818031D0F3249650
:1011A0000FB6F894DEBF0FBECDBFDF91CF9108958B
:1011B000CF93DF93CDB7DEB727970FB6F894DEBF96
:1011C0000FBECDBF8D836E834F831C821C8232C0C5
:1011D0008C81282F33278D819927280F391F8E81E5
:1011E00099279695982F882797958795A901480F55
:1011F000591F8F81282F3327C901880F991F880F06
:10120000991F820F931F9C018C819927280F391FEA
:1012100084EE90E0820F931F9B838A83EA81FB8197
:10122000849189838981FA01E05CFA4F80838C8103
:101230008F5F8C838C81853058F227960FB6F89497
:10124000DEBF0FBECDBFDF91CF910895CF93DF9367
:10125000CDB7DEB725970FB6F894DEBF0FBECDBF72
:101260008A836B835D834C831982198203C08981D1
:101270008F5F898389818032D0F325960FB6F894E9
:10128000DEBF0FBECDBFDF91CF910895CF93DF9327
:10129000CDB7DEB725970FB6F894DEBF0FBECDBF32
:1012A0008A836B835D834C8319821DC0EC81FD8131
:1012B0008081482F40528981282F3327C901880F08
:1012C000991F880F991F820F931F982F8A81890F6A
:1012D0006B810E94D8088C819D8101969D838C83AF
:1012E00089818F5F8983EC81FD8180818823F1F67C
:1012F00025960FB6F894DEBF0FBECDBFDF91CF911C
:101300000895CF93DF93CDB7DEB725970FB6F89446
:10131000DEBF0FBECDBF8A836B835D834C83198292
:101320001CC0EC81FD818081282F20528981992762
:10133000880F991F880F991F880F991F982F8A81EE
:10134000890F422F6B810E94B9088C819D81019683
:101350009D838C8389818F5F8983EC81FD8180816E
:101360008823F9F625960FB6F894DEBF0FBECDBFE1
:10137000DF91CF9108950F931F93CF93DF93CDB754
:10138000DEB728970FB6F894DEBF0FBECDBF8B83B4
:101390006C834D832E8318870F838C8189832EC0A5
:1013A0008B818A831BC0898199279C013695322FB6
:1013B0002227379527958A819927820F931FEF81DE
:1013C000F8852081FC01E05CFA4F20838F819885AD
:1013D000019698878F838A818F5F8A838A81482FBD
:1013E00055278D81282F33278B819927820F931FB3
:1013F00048175907C4F289818F5F89838981482FF3
:1014000055278E81282F33278C819927820F931F90
:10141000481759072CF228960FB6F894DEBF0FBE76
:10142000CDBFDF91CF911F910F910895CF93DF939F
:10143000CDB7DEB726970FB6F894DEBF0FBECDBF8F
:101440008A836B835D834C832E83198219C08981C3
:101450009927880F991F9C018C819D81F901E80FC4
:10146000F91F208131818981982F9295907F8A81FF
:10147000890FA9016B810E94260989818F5F898369
:1014800099818E81981718F326960FB6F894DEBFCF
:101490000FBECDBFDF91CF910895CF93DF93CDB72E
:1014A000DEB72B970FB6F894DEBF0FBECDBF8B878C
:1014B000E2E0F1E01082E5E0F1E08B858083E2E09C
:1014C000F1E081E080830F920F90E2E0F1E0108282
:1014D00080E090E0A8E4B2E48A839B83AC83BD8380
:1014E0002BEA3AEA4AEA50E46A817B818C819D8149
:1014F0000E941E12DC01CB018F839887A987BA87CF
:1015000020E030E040E85FE36F81788589859A8547
:101510000E94A81388230CF003C081E08E8318C0BA
:1015200020E030E04FE753E46F81788589859A8524
:101530000E943C1318160CF002C01E8209C06F8175
:10154000788589859A850E946D10DC01CB018E8398
:101550008E81898389818A95F1F789832B960FB6CD
:10156000F894DEBF0FBECDBFDF91CF910895CF932A
:10157000DF93CDB7DEB72B970FB6F894DEBF0FBE63
:10158000CDBF8B87E2E0F1E082E08083E5E0F1E02F
:101590008B858083E2E0F1E083E080830F920F90FF
:1015A000E2E0F1E082E0808380E090E0A8E4B2E451
:1015B0008A839B83AC83BD832BEA3AEA4AEA50E4F0
:1015C0006A817B818C819D810E941E12DC01CB018E
:1015D0008F839887A987BA8720E030E040E85FE3EF
:1015E0006F81788589859A850E94A81388230CF0DD
:1015F00003C081E08E8318C020E030E04FE753E461
:101600006F81788589859A850E943C1318160CF0A5
:1016100002C01E8209C06F81788589859A850E94E3
:101620006D10DC01CB018E838E81898389818A953F
:10163000F1F789832B960FB6F894DEBF0FBECDBFAE
:10164000DF91CF910895CF93DF93CDB7DEB7239786
:101650000FB6F894DEBF0FBECDBF89837B836A834C
:1016600089810E944D0A0AC0EA81FB8180810E9423
:10167000B70A8A819B8101969B838A83EA81FB81D9
:101680008081882389F723960FB6F894DEBF0FBEBA
:10169000CDBFDF91CF910895CF93DF93CDB7DEB764
:1016A0002C970FB6F894DEBF0FBECDBF88E30E9423
:1016B0004D0A8CE00E944D0A86E00E944D0A81E0AE
:1016C0000E944D0A80E090E0A0E0B0E48B839C8310
:1016D000AD83BE8320E030E04AE755E46B817C8136
:1016E0008D819E810E941E12DC01CB0189879A8721
:1016F000AB87BC8720E030E040E85FE369857A850E
:101700008B859C850E94A81388230CF005C081E07E
:1017100090E098878F831AC020E03FEF4FE757E4AF
:1017200069857A858B859C850E943C1318160CF080
:1017300003C018861F820AC069857A858B859C85BF
:101740000E946D10DC01CB0198878F838F81988573
:101750009A83898389819A810197F1F79A83898392
:101760002C960FB6F894DEBF0FBECDBFDF91CF91A0
:101770000895CF93DF93CDB7DEB7E4ECF0E083E3D9
:1017800090E091838083E0ECF0E01082E1ECF0E007
:1017900088E98083E2ECF0E086E08083DF91CF91FE
:1017A0000895CF93DF93CDB7DEB721970FB6F894A6
:1017B000DEBF0FBECDBF8983E0ECF0E080819927CA
:1017C000807290700097C1F3E6ECF0E0898180832D
:1017D00021960FB6F894DEBF0FBECDBFDF91CF913B
:1017E0000895CF93DF93CDB7DEB722970FB6F89465
:1017F000DEBF0FBECDBF9A8389830AC0E981FA811B
:1018000080810E94D10B89819A8101969A83898374
:10181000E981FA818081882389F722960FB6F894AE
:10182000DEBF0FBECDBFDF91CF910895CF93DF9381
:10183000CDB7DEB78FEF80933E0510923F05DF9165
:10184000CF910895CF93DF93CDB7DEB70E94310CCF
:1018500080933E0580911E0580933F05DF91CF91D7
:101860000895CF93DF93CDB7DEB722970FB6F894E4
:10187000DEBF0FBECDBF8FEF8A838FEF8983E9E094
:10188000F1E080818F60898389818F3F19F0109208
:10189000F70203C08FEF8093F7028091F70288234D
:1018A00071F48091F802882351F480911C05909185
:1018B0001D05019690931D0580931C0522C0809103
:1018C000F702882371F48091F802882351F0109276
:1018D0001D0510921C0510921E0589818093F90246
:1018E00010C08091F702882361F08091F80288236C
:1018F00041F48091F9028A8310921D0510921C0513
:1019000000C08091F7028093F8028A81992722967D
:101910000FB6F894DEBF0FBECDBFDF91CF91089513
:10192000CF93DF93CDB7DEB723970FB6F894DEBF22
:101930000FBECDBF198215C08FE195E020E033E0E6
:10194000AC0166E070E0C9010E94380E8530910557
:1019500029F481E090E09B838A8308C089818F5FAE
:10196000898389818F3040F31B821A828A819B810F
:1019700023960FB6F894DEBF0FBECDBFDF91CF9197
:101980000895CF93DF93CDB7DEB722970FB6F894C3
:10199000DEBF0FBECDBF8FE195E02BE033E0AC01A1
:1019A00066E070E0C9010E94380E8630910519F09A
:1019B0001A8219821CC08FE195E02AEF32E0AC0157
:1019C00066E070E0C9010E94380E8630910569F426
:1019D00080912305882349F480912405813029F4DE
:1019E00081E090E09A83898302C01A8219828981FA
:1019F0009A8122960FB6F894DEBF0FBECDBFDF915D
:101A0000CF910895CF93DF93CDB7DEB728970FB668
:101A1000F894DEBF0FBECDBF8B836C835E834D8396
:101A200081E08093000384E08093010380E1809350
:101A300002038B8180930303109204038C818093B3
:101A400005038FE195E020E033E0AC0166E070E053
:101A5000C9010E94380E835089838981282F33273A
:101A60008C819927880F991F2817390721F51A8229
:101A700013C08A8199279C018D819E81D901A80F6D
:101A8000B91F8A8199270396FC01E15EFA4F808194
:101A90008C938A818F5F8A838A81282F33278C8158
:101AA0009927880F991F281739071CF381E090E0C8
:101AB00098878F8302C018861F828F819885289609
:101AC0000FB6F894DEBF0FBECDBFDF91CF91089562
:101AD000CF93DF93CDB7DEB727970FB6F894DEBF6D
:101AE0000FBECDBF8A836B835D834C8381E080937F
:101AF000000380E180930103109202038A818093A6
:101B00000303109204038B81809305038B81992733
:101B1000880F991F80930603198215C08981992720
:101B2000AC01495F5F4F898199279C018C819D8120
:101B3000F901E80FF91F8081FA01E050FD4F808321
:101B400089818F5F89838981282F33278B8199270A
:101B5000880F991F281739070CF38B819927880F55
:101B6000991FBC01695F7F4F8FE195E020E033E072
:101B7000AC01C9010E94380E8630910529F481E03C
:101B800090E09F838E8302C01F821E828E819F8180
:101B900027960FB6F894DEBF0FBECDBFDF91CF9171
:101BA0000895CF93DF93CDB7DEB728970FB6F8949B
:101BB000DEBF0FBECDBF9E838D8378876F838FEF8F
:101BC0008C838FEF8B831DC0ED81FE8190818C8192
:101BD000892799279A8389838D819E8101969E8387
:101BE0008D8389819A81FC01EF5EFC4F90818B810E
:101BF00089278C8389819A81FC01EF5EFB4F80816C
:101C00008B838F819885019798878F838F819885A3
:101C10002FEF8F3F9207C1F68C819927382F22270B
:101C20008B819927822B932B28960FB6F894DEBFD1
:101C30000FBECDBFDF91CF910895CF93DF93CDB786
:101C4000DEB722970FB6F894DEBF0FBECDBF9A83E2
:101C5000898389819A819093120580931105229638
:101C60000FB6F894DEBF0FBECDBFDF91CF910895C0
:101C70000F931F93CF93DF93CDB7DEB7A8970FB61F
:101C8000F894DEBF0FBECDBF9BA38AA36CA35EA357
:101C90004DA38EE1FE013496DF01282F1D922A9577
:101CA000E9F719828CA18A3F18F018A61FA2D1C0AB
:101CB000198215C08981482F5527898199279C0150
:101CC0008AA19BA1F901E80FF91F2081CE0104969A
:101CD000FC01E40FF51F208389818F5F898399813F
:101CE0008CA1981738F3898199279E012C5F3F4F6B
:101CF000BC01C9010E94D10D9B838A838981282F51
:101D000033278A819B81892F9927482FCE010496FA
:101D1000FC01E20FF31F4083898199279C012F5F0B
:101D20003F4F4A81CE010496FC01E20FF31F40832E
:101D300019820EC08981282F3327CE010496FC0119
:101D4000E20FF31F80810E944E0F89818F5F89838C
:101D50008981282F33278CA19927029628173907C4
:101D60004CF30E941F100E9445108823E1F30E944B
:101D70001F100E9445108823E1F30E941F100E944B
:101D800045108823E1F30E941F100E94451088230C
:101D9000E1F319820FC0898199279C018DA19EA131
:101DA0008901080F191F0E946E0FD8018C93898139
:101DB0008F5F89830E94B70F882369F78981882301
:101DC00031F4809141098F5F8093410908C0898176
:101DD000813029F4809140098F5F80934009898187
:101DE0008230A8F18981992702972DA13EA1BC01DB
:101DF000C9010E94D10D9B838A838A819B81892F8F
:101E00009927482F898199279C018DA19EA1820F36
:101E1000931FFC01329780814817A1F44A81898180
:101E200099279C018DA19EA1820F931FFC013197E0
:101E30008081481739F489818250E82FFF27F8A75D
:101E4000EFA307C0809140098F5F8093400918A6D7
:101E50001FA28FA198A5A8960FB6F894DEBF0FBE5B
:101E6000CDBFDF91CF911F910F910895CF93DF9355
:101E7000CDB7DEB7E4ECF0E083E390E091838083BC
:101E8000E0ECF0E01082E1ECF0E088E98083E2EC45
:101E9000F0E086E08083DF91CF910895CF93DF93C8
:101EA000CDB7DEB721970FB6F894DEBF0FBECDBF1A
:101EB0008983E0ECF0E08081992780729070009730
:101EC000C1F3E6ECF0E08981808321960FB6F894A7
:101ED000DEBF0FBECDBFDF91CF910895CF93DF93CB
:101EE000CDB7DEB723970FB6F894DEBF0FBECDBFD8
:101EF0008091380590913905009719F41B821A8258
:101F00002BC08091340590913505FC01E65DFA4FB8
:101F10008081898380913405909135050196909355
:101F200035058093340580913805909139050197E6
:101F3000909339058093380580913405909135054B
:101F40008A30910521F4109235051092340589816B
:101F5000282F33273B832A838A819B8123960FB6C0
:101F6000F894DEBF0FBECDBFDF91CF910895CF9320
:101F7000DF93CDB7DEB722970FB6F894DEBF0FBE62
:101F8000CDBF8091380590913905009719F41A82D8
:101F9000198204C081E090E09A83898389819A81C3
:101FA00022960FB6F894DEBF0FBECDBFDF91CF9162
:101FB00008951F920F920FB60F9211242F938F93B3
:101FC0009F93EF93FF93CF93DF93CDB7DEB78091CD
:101FD000360590913705E6ECF0E02081FC01E65DE6
:101FE000FA4F20838091380590913905019690939E
:101FF0003905809338058091360590913705019613
:10200000909337058093360580913605909137057A
:102010008A30910521F41092370510923605E4E8D4
:10202000F0E011821082DF91CF91FF91EF919F91AB
:102030008F912F910F900FBE0F901F901895CF93F7
:10204000DF93CDB7DEB7E0E8F0E01082E1E8F0E042
:102050008CE08083E2E8F0E01082E4E8F0E01182B6
:102060001082E8E8F0E083E294EF91838083EFE66A
:10207000F0E01082E6E3F0E08FE280831092450901
:1020800010924409DF91CF910895CF93DF93CDB79C
:10209000DEB722970FB6F894DEBF0FBECDBFE6E3E2
:1020A000F0E08081992782709070009749F0E6E314
:1020B000F0E08FE2808381E090E09A83898302C020
:1020C0001A82198289819A8122960FB6F894DEBF0E
:1020D0000FBECDBFDF91CF910895EF92FF920F9386
:1020E0001F937B018C0120E030E040E05FE40E9420
:1020F000721388237CF020E030E040E05FE4C80108
:10210000B7010E94C0110E94DE13605070408040F1
:10211000904804C0C801B7010E94DE131F910F91BF
:10212000FF90EF900895A0E0B0E0E9E9F0E10C94B1
:102130005C16FC016A019081923008F41BC1DB013E
:102140008C91823080F0943061F4843009F012C1B7
:102150009181EB018981981709F40CC1E3E1F5E065
:1021600009C1843011F4FB0105C1823091F4923031
:1021700009F000C1EA01DF0188E00D900992815069
:10218000E1F78181FB0191818923E6018983F601D1
:10219000F1C0923041F362807380EB018A809B80B2
:1021A000E480F580068117812C813D814E815F811D
:1021B0005301A818B908C501B7FCABC080970CF44F
:1021C00057C0861497040CF4BEC03401EE24FF24DB
:1021D00087019181FB018181981709F4A6C0992399
:1021E00009F49CC02E193F09400B510B57FDB0C09C
:1021F000E60119827B826A82F60124833583468355
:102200005783E6012C813D814E815F8179018A01EE
:10221000DA01C9010197A109B1098F5F9F4FAF4F43
:10222000BF43F8F4E6016A817B81A8019701220F80
:10223000331F441F551F6150704079018A01DA0134
:10224000C9010197A109B1098F5F9F4FAF4FBF43EC
:1022500060F3E6017B836A83F6012483358346833A
:10226000578383E0D6018C9357FD39C0F60182C0B5
:1022700086149704B4F4C0E0D0E0DA01C90181709B
:102280009070A070B0705695479537952795282B7C
:10229000392B4A2B5B2B2196AC16BD0671F78A0CA5
:1022A0009B1C681479040CF094CFC0E0D0E054017A
:1022B000A618B708D801C70181709070A070B070DF
:1022C00016950795F794E794E82AF92A0A2B1B2B11
:1022D0002196AC16BD0671F76A0C7B1C7ACFDA0129
:1022E000C901B695A7959795879521703070407074
:1022F0005070282B392B4A2B5B2BE6012C833D8316
:102300004E835F838A819B8101969B838A83F6013A
:1023100031C0882799278A199B0950CFE21AF30AFE
:10232000040B150BA801970161CFE60199837B820D
:102330006A822E0D3F1D401F511FF60124833583F5
:10234000468357838ECF20E030E040E050E041CF1D
:1023500081E0E60189837B826A82509540953095C1
:1023600021953F4F4F4F5F4FF601248335834683BE
:10237000578347CFCF01EEE0CDB7DEB70C94781688
:10238000A0E2B0E0E6ECF1E10C94641669837A8394
:102390008B839C832D833E834F83588789E1E82E6E
:1023A000F12CEC0EFD1EB701CE0101960E945015D6
:1023B0008E010F5E1F4FB801CE0105960E94501589
:1023C0008A8991E089278A8BAE01475F5F4FB80108
:1023D000C7010E9493100E942E14E6E0A0960C9470
:1023E0008016A0E2B0E0E7EFF1E10C946416698397
:1023F0007A838B839C832D833E834F83588799E117
:10240000E92EF12CEC0EFD1EB701CE0101960E94C3
:1024100050158E010F5E1F4FB801CE0105960E9428
:102420005015AE01475F5F4FB801C7010E9493107E
:102430000E942E14E6E0A0960C948016A0E2B0E074
:10244000E4E2F2E10C94581669837A838B839C83CF
:102450002D833E834F8358878E01075E1F4FB8013F
:10246000CE0101960E945015F1E1EF2EF12CEC0EF9
:10247000FD1EB701CE0105960E945015898D823050
:1024800078F09989923040F420E09A8D8A899813E7
:1024900021E02A8BB701E9C0843051F4923061F019
:1024A00020E09A8D8A89981321E02A8FB801DDC037
:1024B000943029F4823041F763E175E0D6C0823070
:1024C00079F3923009F32D8D3E8D4F8D58A18D8972
:1024D0009E89AF89B88D222433242101AA24BB24EC
:1024E0006501EE24FF24870160E070E00DC06F5F9E
:1024F0007F4F6032710599F1880F991FAA1FBB1F8A
:10250000569547953795279520FF19C0280E391EF7
:102510004A1E5B1E662477244301281639064A06A4
:102520005B0628F4E1E06E2E712C812C912CAE0C10
:10253000BF1CC01ED11EA60CB71CC81CD91CEE0C9B
:10254000FF1C001F111FB7FFD2CFE1E06E2E712CD0
:10255000812C912CE628F72808291929C8CF8B8DC2
:102560009C8D2B893C89820F931F02969C878B87B9
:102570001A869A8D8A89981711F081E08A87D7FE8A
:1025800017C08B859C85A0FE0CC056944794379449
:10259000279420E030E040E050E8222A332A442A01
:1025A000552AD694C794B794A79401969C878B8795
:1025B00030E0A31630E0B30630E0C30630E4D306C3
:1025C00018F58B859C850EC0220C331C441C551CB1
:1025D000019720E0A21620E0B20620E0C20620E427
:1025E000D20680F4AA0CBB1CCC1CDD1C57FEECCF21
:1025F00031E0632E712C812C912CA628B728C82895
:10260000D928E2CF9C878B87D601C5018F77907040
:10261000A070B07080349105A105B10551F0AD8670
:10262000BE86CF86D88A83E08987BE01675F7F4FE9
:102630001CC0A7FCF4CF211431044104510479F3E8
:1026400080E490E0A0E0B0E0A80EB91ECA1EDB1E38
:1026500080E8682E8FEF782E8FEF882E8FEF982EE0
:10266000A620B720C820D920DACFCB010E942E1493
:10267000E2E1A0960C947416A8E1B0E0E2E4F3E184
:102680000C94641669837A838B839C832D833E83A9
:102690004F83588781E1E82EF12CEC0EFD1EB70127
:1026A000CE0101960E9450158E01075F1F4FB801A1
:1026B000CE0105960E9450158989823018F42FEFBB
:1026C0003FEF0BC089858230D0F3B801C7010E946B
:1026D000EF15282F332727FD3095C901E6E06896CE
:1026E0000C948016A8E1B0E0E8E7F3E10C946416DE
:1026F00069837A838B839C832D833E834F835887A2
:1027000081E1E82EF12CEC0EFD1EB701CE01019601
:102710000E9450158E01075F1F4FB801CE0105962C
:102720000E9450158989823018F42FEF3FEF0BC0BB
:1027300089858230D0F3B801C7010E94EF15282F98
:10274000332727FD3095C901E6E068960C94801682
:10275000A8E1B0E0EEEAF3E10C94641669837A83B1
:102760008B839C832D833E834F83588781E1E82EA2
:10277000F12CEC0EFD1EB701CE0101960E94501502
:102780008E01075F1F4FB801CE0105960E945015BC
:102790008989823018F08985823018F421E030E090
:1027A00008C0B801C7010E94EF15282F332727FD65
:1027B0003095C901E6E068960C948016ACE0B0E074
:1027C000E4EEF3E10C94681669837A838B839C832F
:1027D000BE016B5F7F4FCE0101960E9450158D8127
:1027E000823061F0823050F0843069F48E81882329
:1027F00059F52FEF3FEF4FEF5FE72AC020E030E0C1
:1028000040E050E025C02F81388537FDF7CF2F31CC
:10281000310564F78EE190E0821B930B29853A85A0
:102820004B855C8504C056954795379527958A95C5
:10283000D2F78E81882361F050954095309521958F
:102840003F4F4F4F5F4F04C020E030E040E050E882
:10285000CA01B901E2E02C960C9484164F925F9263
:102860006F927F928F929F92AF92BF92DF92EF9280
:10287000FF920F931F9320E030E040E050E0FC0116
:10288000E480F58006811781D1808081823038F420
:10289000D801C701A061AF77B0706FEFD9C08430A5
:1028A00009F46EC0823009F471C0E114F10401052D
:1028B000110509F46BC0828193816FEF823896070E
:1028C0000CF06AC062E87FEF681B790B6A31710512
:1028D0000CF080C047015801062E04C0B694A7949E
:1028E000979487940A94D2F744245524320181E0C6
:1028F00090E0A0E0B0E004C0880F991FAA1FBB1FA2
:102900006A95D2F70197A109B109E822F9220A23B1
:102910001B23E114F1040105110529F061E0462EA5
:10292000512C612C712C85017401E428F5280629AD
:102930001729D801C7018F779070A070B0708034CC
:102940009105A105B10509F457C0D801C701CF967B
:10295000A11DB11D60E070E08030E0E09E07E0E086
:10296000AE07E0E4BE0710F061E070E027E0B69546
:10297000A795979587952A95D1F7AF77B07068C0DE
:1029800080E090E0A0E0B0E06FEF62C080E090E017
:10299000A0E0B0E060E05CC0803891058CF7BC013D
:1029A00061587F4FD801C7018F779070A070B070C9
:1029B00080349105A105B105A1F08FE390E0A0E07E
:1029C000B0E0E80EF91E0A1F1B1F17FD28C0D80132
:1029D000C701CCCF60E070E080E090E0A0E0B0E024
:1029E000CCCFE7FEF2CF80E490E0A0E0B0E0E80ECC
:1029F000F91E0A1F1B1FE9CFE7FC18C080E090E01A
:102A000060E0E61660E0F60660E0060760E41607A0
:102A100010F081E090E0BC01D801C701A7CF169566
:102A20000795F794E7946F5F7F4FD1CFD801C70127
:102A3000805C9F4FAF4FBF4F60E070E08030E0E0C0
:102A40009E07E0E0AE07E0E4BE0708F48FCF8CCF2E
:102A5000282F392F9A2F9F77842F8078892B962FB4
:102A60009795992797958F77482F492B6695852FAE
:102A70008078862BD794DD24D7948F77582F5D29C3
:102A8000CA01B9011F910F91FF90EF90DF90BF90A5
:102A9000AF909F908F907F906F905F904F90089530
:102AA000FC01DB01208131819281492F4F7750E079
:102AB000991F9927991F8381682F660F692B881F9B
:102AC0008827881FFD018183662309F049C02115ED
:102AD00031054105510509F470C082E89FEFFD0101
:102AE00093838283220F331F441F551F220F331FEE
:102AF000441F551F220F331F441F551F220F331F22
:102B0000441F551F220F331F441F551F220F331F11
:102B1000441F551F220F331F441F551F83E08C9302
:102B20002030F0E03F07F0E04F07F0E45F0790F45B
:102B300082E89FEF220F331F441F551F019720305B
:102B400060E0360760E0460760E4560798F3FD0151
:102B500093838283FD0124833583468357830895BD
:102B60006F3F71F1862F99278F579040FD01938316
:102B7000828383E08C93220F331F441F551F220F43
:102B8000331F441F551F220F331F441F551F220F91
:102B9000331F441F551F220F331F441F551F220F81
:102BA000331F441F551F220F331F441F551F5064EE
:102BB0002483358346835783089582E08C93089558
:102BC000211531054105510519F484E08C930895D0
:102BD00044FD02C01C92BECF81E08C93BBCFEF922C
:102BE000FF920F931F93CF93DF93FC01DB01808152
:102BF000823050F09C91923038F0843041F494301F
:102C0000B1F08181882381F461E070E04BC09430A1
:102C1000E9F18230A1F09230A1F36181ED01898167
:102C2000681791F0662381F36FEF7FEF3BC0EB01F4
:102C30008981682F77278181681B710933C09230A1
:102C400059F560E070E02EC022813381ED018A8168
:102C50009B818217930734F3281739079CF0E4808F
:102C6000F58006811781FD012481358146815781D8
:102C70002E153F0540075107A8F2E216F306040798
:102C80001507F8F6662309F0BFCFCECFFB0181818F
:102C9000882309F0B9CFC8CFEB018981882309F0D7
:102CA000B3CFC2CFCB01E6E0CDB7DEB70C94801630
:102CB0002F923F924F925F926F927F928F929F924C
:102CC000AF92BF92CF92DF92EF92FF920F931F933A
:102CD000CF93DF93CDB7DEB7CA1BDB0B0FB6F894EB
:102CE000DEBF0FBECDBF19942A88398848885F841B
:102CF0006E847D848C849B84AA84B984C884DF809C
:102D0000EE80FD800C811B81AA81B981CE0FD11D7F
:0E2D10000FB6F894DEBF0FBECDBFED010895E3
:102D1E002020202053454F484F20454C45432E2020
:102D2E00323536304B495420200020204227442093
:102D3E00544553542050726F6772616D2056312E78
:102D4E003020200020202020202020202020202085
:102D5E002020202020202020202020202000202085
:102D6E00202D2043414E4F50454E20434F4D4D2078
:102D7E0054455354202D0020202020202020203286
:102D8E003031302F30372F3230202020202020209D
:102D9E00002020202020202050726F6772616D6508
:102DAE0064206279202020202020002020205061E5
:102DBE00756C204279756E672D48756E2050617264
:102DCE006B202020004B4559202D3E2073657269E3
:102DDE00616C202020002020202020202020202078
:102DEE00202020202020004175746F4261756420E0
:102DFE006661756C742100536574204D6F64652097
:102E0E004661756C742100FFFFFF01045001000143
:102E1E0001035001000100000000000106500100F6
:102E2E000100C1814001C0804101C0804100C181CB
:102E3E004001C0804100C1814000C1814001C0807D
:102E4E004101C0804100C1814000C1814001C0806C
:102E5E004100C1814001C0804101C0804100C1815B
:102E6E004001C0804100C1814000C1814001C0804D
:102E7E004100C1814001C0804101C0804100C1813B
:102E8E004000C1814001C0804101C0804100C1812C
:102E9E004001C0804100C1814000C1814001C0801D
:102EAE004101C0804100C1814000C1814001C0800C
:102EBE004100C1814001C0804101C0804100C181FB
:102ECE004000C1814001C0804101C0804100C181EC
:102EDE004001C0804100C1814000C1814001C080DD
:102EEE004100C1814001C0804101C0804100C181CB
:102EFE004001C0804100C1814000C1814001C080BD
:102F0E004101C0804100C1814000C1814001C080AB
:102F1E004100C1814001C0804101C0804100C1819A
:102F2E004000C0C101C30302C2C60607C705C5C41F
:102F3E0004CC0C0DCD0FCFCE0E0ACACB0BC909088F
:102F4E00C8D81819D91BDBDA1A1EDEDF1FDD1D1CCF
:102F5E00DC14D4D515D71716D6D21213D311D1D05F
:102F6E0010F03031F133F3F23236F6F737F53534FF
:102F7E00F43CFCFD3DFF3F3EFEFA3A3BFB39F9F8CF
:102F8E003828E8E929EB2B2AEAEE2E2FEF2DEDEC6F
:102F9E002CE42425E527E7E62622E2E323E121209F
:102FAE00E0A06061A163A3A26266A6A767A565649F
:102FBE00A46CACAD6DAF6F6EAEAA6A6BAB69A9A80F
:102FCE006878B8B979BB7B7ABABE7E7FBF7DBDBC4F
:102FDE007CB47475B577B7B67672B2B373B17170DF
:102FEE00B05090915193535292965657975595943F
:102FFE00549C5C5D9D5F9F9E5E5A9A9B5B9959584F
:10300E0098884849894B8B8A4A4E8E8F4F8D4D4CEE
:10301E008C4484854587474686824243834181801E
:0C302E004060EA0000000000000000000C
:00000001FF
