:100000000C9472010C948F010C948F010C948F014D
:100010000C948F010C948F010C948F010C948F0120
:100020000C948F010C948F010C948F010C948F0110
:100030000C948F010C948F010C948F010C948F0100
:100040000C948F010C948F010C948F010C948F01F0
:100050000C948F010C948F010C948F010C948F01E0
:100060000C948F010C94A30D0C948F010C948F01B0
:100070000C948F010C948F010C948F010C948F01C0
:100080000C948F010C948F010C948F010C948F01B0
:100090000C948F010C948F010C948F010C948F01A0
:1000A0000C948F010C948F010C948F010C948F0190
:1000B0000C948F010C948F010C948F010C948F0180
:1000C0000C948F010C948F010C948F010C948F0170
:1000D0000C948F010C948F010C948F010C948F0160
:1000E0000C948F01000000000000004F000000078A
:1000F000000700147F147F14242A7F2A1223130878
:10010000646236495522500005030000001C22415C
:10011000000041221C0014083E081408083E08088C
:100120000050300000080808080800606000002047
:10013000100804023E5149453E00427F40004261A2
:100140005149462141454B311814127F102745452E
:1001500045393C4A49493001710905033649494945
:1001600036064949291E0036360000005636000082
:10017000081422410014141414140041221408021B
:1001800001510906324979413E7E1111117E7F49A4
:100190004949363E414141227F4141221C7F494924
:1001A00049417F090909013E4149497A7F08080808
:1001B0007F00417F41002040413F017F08142241E0
:1001C0007F404040407F020C027F7F0408107F3E4A
:1001D0004141413E7F090909063E4151215E7F09A7
:1001E000192946264949493201017F01013F404012
:1001F000403F1F2040201F3F4038403F63140814F9
:100200006307087008076151494543007F41410079
:1002100002040810200041417F0004020102044052
:1002200040404040000102040020545454787F486C
:100230004444383844444420384444487F38545473
:100240005418087E0901020C5252523E7F080404E1
:100250007800047D00002040443D007F10284400C9
:1002600000417F40007C0418047C7C08040478383A
:10027000444444387C14141408081414187C7C0872
:100280000404084854545420043F4440203C404057
:10029000207C1C2040201C3C4030403C442810283E
:1002A000440C5050503C4464544C440008364100C7
:1002B000000077000000413608000804081008001C
:1002C000000000000000000000000000000000002E
:1002D000000000000000000000000000000000001E
:1002E0000000000011241FBECFEFD1E2DEBFCDBF62
:1002F00015E0A0E0B2E0E6E5F9E200E00BBF02C0E5
:1003000007900D92A631B107D9F719E0A6E1B5E043
:1003100001C01D92A633B107E1F70C94CA010C94F9
:100320000000CF93DF93CDB7DEB7E4E7F0E081ECD8
:100330008083E5E7F0E080E88083E4E2F0E08FEF9F
:100340008083E5E2F0E01082EDE2F0E08CE0808373
:10035000EEE2F0E01082E1E0F1E08FEF8083E2E096
:10036000F1E01082E4E0F1E08FEF8083E5E0F1E07E
:100370001082E7E0F1E08FEF8083E8E0F1E01082A7
:10038000EAE0F1E08FE08083EBE0F1E01082DF91C2
:10039000CF910895CF93DF93CDB7DEB7C654D04049
:1003A0000FB6F894DEBF0FBECDBFFE01E05CFF4F7D
:1003B00010821FAE1EAE1DAE0E94910180E090E043
:1003C000A8E4B2E48BAB9CABADABBEAB20E030E0BD
:1003D0004AE755E46BA97CA98DA99EA90E943A1011
:1003E000DC01CB0189AF9AAFABAFBCAF20E030E00E
:1003F00040E85FE369AD7AAD8BAD9CAD0E94C4115E
:1004000088230CF005C081E090E098AF8FAB1AC054
:1004100020E03FEF4FE757E469AD7AAD8BAD9CAD7F
:100420000E94581118160CF003C018AE1FAA0AC07B
:1004300069AD7AAD8BAD9CAD0E94890EDC01CB011C
:1004400098AF8FAB8FA998AD9AAB89AB89A99AA9C0
:100450000197F1F79AAB89AB0E94BE080E946B0529
:1004600080E092E0AC0160E080E00E94B8068AE1A2
:1004700092E0AC0161E080E00E94B80684E392E083
:10048000AC0162E080E00E94B8068EE492E0AC012C
:1004900063E080E00E94B80687E692E0AC0164E089
:1004A00080E00E94B80684E392E0AC0165E080E061
:1004B0000E94B80681E892E0AC0166E080E00E940C
:1004C000B8068BE992E0AC0167E080E00E94B806D4
:1004D0000E94AA0585EB92E0BC0180E80E94950885
:1004E00086EC92E0BC0180EC0E9495080E94000D11
:1004F00078940E94020AFE01EF5BFF4F8083FE01A9
:10050000EF5BFF4F8081882339F487ED92E0BC01D7
:1005100080EC0E949508FFCF0E945C0A882339F086
:1005200087EE92E0BC0180EC0E949508FFCFFE01AF
:10053000ED5BFF4F8BEA8083FE01ED5BFF4F8DEC9F
:100540008183CE018D5B9F4FAC0161E080E00E9412
:10055000480BCE018B5B9F4FAC0161E080E00E94B5
:10056000E30AFE01EF5BFF4F8083FE01EF5BFF4F6D
:100570008081882309F478C080EC0E94BF07FE01C7
:10058000EB5BFF4F808182958F708A3050F4FE01C3
:10059000EB5BFF4F808182958F70805D0E94290800
:1005A00009C0FE01EB5BFF4F808182958F70895CF3
:1005B0000E94290881EC0E94BF07FE01EB5BFF4F00
:1005C000808199278F7090708A3091054CF4FE01DC
:1005D000EB5BFF4F80818F70805D0E94290808C00F
:1005E000FE01EB5BFF4F80818F70895C0E942908C0
:1005F00082EC0E94BF07FE01EB5BFF4F8181829579
:100600008F708A3050F4FE01EB5BFF4F8181829541
:100610008F70805D0E94290809C0FE01EB5BFF4FCF
:10062000818182958F70895C0E94290883EC0E94E9
:10063000BF07FE01EB5BFF4F818199278F709070A0
:100640008A3091054CF4FE01EB5BFF4F81818F7086
:10065000805D0E94290808C0FE01EB5BFF4F81818D
:100660008F70895C0E94290880E090E0AAEFB3E4D3
:100670008FA398A7A9A7BAA720E030E04AE755E4DE
:100680006FA178A589A59AA50E943A10DC01CB013B
:100690008DA79EA7AFA7B8AB20E030E040E85FE3AE
:1006A0006DA57EA58FA598A90E94C41188230CF082
:1006B00005C081E090E09CA78BA71AC020E03FEF27
:1006C0004FE757E46DA57EA58FA598A90E94581104
:1006D00018160CF003C01CA61BA60AC06DA57EA5AB
:1006E0008FA598A90E94890EDC01CB019CA78BA73E
:1006F0008BA59CA59EA38DA38DA19EA10197F1F72B
:100700009EA38DA380E090E0AAEFB3E48B8F9C8F33
:10071000AD8FBE8F20E030E04AE755E46B8D7C8DD5
:100720008D8D9E8D0E943A10DC01CB0189A39AA386
:10073000ABA3BCA320E030E040E85FE369A17AA16D
:100740008BA19CA10E94C41188230CF005C081E0FC
:1007500090E098A38F8F1AC020E03FEF4FE757E457
:1007600069A17AA18BA19CA10E94581118160CF0C6
:1007700003C018A21F8E0AC069A17AA18BA19CA1F7
:100780000E94890EDC01CB0198A38F8F8F8D98A1D9
:100790009A8F898F898D9A8D0197F1F79A8F898F1A
:1007A00080E090E0AAEFB3E48F87988BA98BBA8B97
:1007B00020E030E04AE755E46F85788989899A8995
:1007C0000E943A10DC01CB018D8B9E8BAF8BB88FD2
:1007D00020E030E040E85FE36D897E898F89988D65
:1007E0000E94C41188230CF005C081E090E09C8B2E
:1007F0008B8B1AC020E03FEF4FE757E46D897E896D
:100800008F89988D0E94581118160CF003C01C8A0D
:100810001B8A0AC06D897E898F89988D0E94890EF6
:10082000DC01CB019C8B8B8B8B899C899E878D8770
:100830008D859E850197F1F79E878D8780E090E0FA
:10084000AAEFB3E48B839C83AD83BE8320E030E0CA
:100850004AE755E46B817C818D819E810E943A102C
:10086000DC01CB0189879A87AB87BC8720E030E029
:1008700040E85FE369857A858B859C850E94C41179
:1008800088230CF005C081E090E098878F831AC020
:1008900020E03FEF4FE757E469857A858B859C859B
:1008A0000E94581118160CF003C018861F820AC047
:1008B00069857A858B859C850E94890EDC01CB0138
:1008C00098878F838F8198859A83898389819A817C
:1008D0000197F1F79A8389832ACECF93DF93CDB71F
:1008E000DEB72C970FB6F894DEBF0FBECDBF8B8757
:1008F0006C87E2E0F1E090EC8B85892380830F9296
:100900000F900F920F90E5E0F1E08C858083E2E09C
:10091000F1E09B8580EC8923806280830F920F90A9
:100920000F920F90E2E0F1E090EC8B8589238083B9
:100930000000E2E0F1E0108280E090E0A0E2B1E4AB
:100940008A839B83AC83BD832BEA3AEA4AEA50E46C
:100950006A817B818C819D810E943A10DC01CB01F0
:100960008F839887A987BA8720E030E040E85FE36B
:100970006F81788589859A850E94C41188230CF03F
:1009800003C081E08E8318C020E030E04FE753E4DD
:100990006F81788589859A850E94581118160CF008
:1009A00002C01E8209C06F81788589859A850E9460
:1009B000890EDC01CB018E838E81898389818A95A2
:1009C000F1F789832C960FB6F894DEBF0FBECDBF2A
:1009D000DF91CF910895CF93DF93CDB7DEB72C97FA
:1009E0000FB6F894DEBF0FBECDBF8B876C87E2E0F9
:1009F000F1E09B8580EC8923806180830F920F90CA
:100A00000F920F90E5E0F1E08C858083E2E0F1E069
:100A10009B8580EC8923806380830F920F900F92D7
:100A20000F90E2E0F1E09B8580EC89238061808378
:100A30000000E2E0F1E0108280E090E0A0E2B1E4AA
:100A40008A839B83AC83BD832BEA3AEA4AEA50E46B
:100A50006A817B818C819D810E943A10DC01CB01EF
:100A60008F839887A987BA8720E030E040E85FE36A
:100A70006F81788589859A850E94C41188230CF03E
:100A800003C081E08E8318C020E030E04FE753E4DC
:100A90006F81788589859A850E94581118160CF007
:100AA00002C01E8209C06F81788589859A850E945F
:100AB000890EDC01CB018E838E81898389818A95A1
:100AC000F1F789832C960FB6F894DEBF0FBECDBF29
:100AD000DF91CF910895CF93DF93CDB7DEB7239702
:100AE0000FB6F894DEBF0FBECDBFE2E0F1E010829A
:100AF0006FE380EC0E946D0460EC80EC0E946D045A
:100B000088EB89831B821AC0698180EC0E946D0486
:100B100060E480EC0E946D041A8207C060E080EC03
:100B20000E94EB048A818F5F8A838A818034B0F3CC
:100B300089818F5F89838B818F5F8B838B818830E5
:100B400018F323960FB6F894DEBF0FBECDBFDF912A
:100B5000CF910895CF93DF93CDB7DEB724970FB62B
:100B6000F894DEBF0FBECDBF1C821B8246C08B81B6
:100B70008854682F80EC0E946D041A82198233C059
:100B800089819A8180349105A8F48B819C819C0194
:100B90003695322F22273795279589819A81820FA2
:100BA000931FFC01E05DFA4F8081682F80E40E9472
:100BB000EB0414C08B819C819C013695322F222737
:100BC0003795279589819A81820F931FFC01E05DFB
:100BD000FA4F8081682F80E80E94EB0489819A8116
:100BE00001969A83898389819A818038910540F2A0
:100BF0008B819C8101969C838B838B819C81883027
:100C0000910508F4B4CF24960FB6F894DEBF0FBE5A
:100C1000CDBFDF91CF910895CF93DF93CDB7DEB7EE
:100C200024970FB6F894DEBF0FBECDBF8A836B83C7
:100C30004C831982198203C089818F5F89838981DE
:100C40008034D0F324960FB6F894DEBF0FBECDBF2C
:100C5000DF91CF910895CF93DF93CDB7DEB724977F
:100C60000FB6F894DEBF0FBECDBF8A836B834C8373
:100C70001982198203C089818F5F898389818031BC
:100C8000D0F324960FB6F894DEBF0FBECDBFDF9130
:100C9000CF910895CF93DF93CDB7DEB727970FB6E7
:100CA000F894DEBF0FBECDBF8D836E834F831C8251
:100CB0001C8232C08C81282F33278D819927280FE1
:100CC000391F8E8199279695982F88279795879514
:100CD000A901480F591F8F81282F3327C901880F79
:100CE000991F880F991F820F931F9C018C81992750
:100CF000280F391F84EE90E0820F931F9B838A8315
:100D0000EA81FB81849189838981FA01E05DFA4F50
:100D100080838C818F5F8C838C81853058F22796FD
:100D20000FB6F894DEBF0FBECDBFDF91CF9108950F
:100D3000CF93DF93CDB7DEB725970FB6F894DEBF1C
:100D40000FBECDBF8A836B835D834C83198219826A
:100D500003C089818F5F898389818032D0F3259692
:100D60000FB6F894DEBF0FBECDBFDF91CF910895CF
:100D7000CF93DF93CDB7DEB725970FB6F894DEBFDC
:100D80000FBECDBF8A836B835D834C8319821DC0E8
:100D9000EC81FD818081482F40528981282F3327A3
:100DA000C901880F991F880F991F820F931F982FD1
:100DB0008A81890F6B810E944A068C819D810196F0
:100DC0009D838C8389818F5F8983EC81FD81808104
:100DD0008823F1F625960FB6F894DEBF0FBECDBF7F
:100DE000DF91CF910895CF93DF93CDB7DEB72597ED
:100DF0000FB6F894DEBF0FBECDBF8A836B835D83D1
:100E00004C8319821CC0EC81FD818081282F2052E7
:100E100089819927880F991F880F991F880F991F1B
:100E2000982F8A81890F422F6B810E942B068C811B
:100E30009D8101969D838C8389818F5F8983EC815D
:100E4000FD8180818823F9F625960FB6F894DEBFE0
:100E50000FBECDBFDF91CF9108950F931F93CF9316
:100E6000DF93CDB7DEB728970FB6F894DEBF0FBE7D
:100E7000CDBF8B836C834D832E8318870F838C812A
:100E800089832EC08B818A831BC0898199279C010D
:100E90003695322F2227379527958A819927820FF9
:100EA000931FEF81F8852081FC01E05DFA4F2083DC
:100EB0008F819885019698878F838A818F5F8A8337
:100EC0008A81482F55278D81282F33278B81992799
:100ED000820F931F48175907C4F289818F5F898356
:100EE0008981482F55278E81282F33278C81992778
:100EF000820F931F481759072CF228960FB6F894C3
:100F0000DEBF0FBECDBFDF91CF911F910F9108952E
:100F1000CF93DF93CDB7DEB726970FB6F894DEBF39
:100F20000FBECDBF8A836B835D834C832E83198272
:100F300019C089819927880F991F9C018C819D81F7
:100F4000F901E80FF91F208131818981982F92954D
:100F5000907F8A81890FA9016B810E9498068981FF
:100F60008F5F898399818E81981718F326960FB623
:100F7000F894DEBF0FBECDBFDF91CF910895CF9320
:100F8000DF93CDB7DEB72B970FB6F894DEBF0FBE59
:100F9000CDBF8B87E2E0F1E01082E5E0F1E08B85E8
:100FA0008083E2E0F1E081E080830F920F90E2E045
:100FB000F1E0108280E090E0A8E4B2E48A839B83B1
:100FC000AC83BD832BEA3AEA4AEA50E46A817B812A
:100FD0008C819D810E943A10DC01CB018F83988720
:100FE000A987BA8720E030E040E85FE36F81788529
:100FF00089859A850E94C41188230CF003C081E082
:101000008E8318C020E030E04FE753E46F8178858D
:1010100089859A850E94581118160CF002C01E820C
:1010200009C06F81788589859A850E94890EDC01C7
:10103000CB018E838E81898389818A95F1F789839B
:101040002B960FB6F894DEBF0FBECDBFDF91CF91C8
:101050000895CF93DF93CDB7DEB72B970FB6F894F3
:10106000DEBF0FBECDBF8B87E2E0F1E082E0808380
:10107000E5E0F1E08B858083E2E0F1E083E08083CE
:101080000F920F90E2E0F1E082E0808380E090E058
:10109000A8E4B2E48A839B83AC83BD832BEA3AEA5B
:1010A0004AEA50E46A817B818C819D810E943A10DA
:1010B000DC01CB018F839887A987BA8720E030E0D5
:1010C00040E85FE36F81788589859A850E94C41125
:1010D00088230CF003C081E08E8318C020E030E04C
:1010E0004FE753E46F81788589859A850E9458116E
:1010F00018160CF002C01E8209C06F8178858985A0
:101100009A850E94890EDC01CB018E838E818983B2
:1011100089818A95F1F789832B960FB6F894DEBF03
:101120000FBECDBFDF91CF910895CF93DF93CDB7A1
:10113000DEB723970FB6F894DEBF0FBECDBF89830D
:101140007B836A8389810E94BF070AC0EA81FB8191
:1011500080810E9429088A819B8101969B838A83D2
:10116000EA81FB818081882389F723960FB6F89462
:10117000DEBF0FBECDBFDF91CF910895CF93DF9338
:10118000CDB7DEB72C970FB6F894DEBF0FBECDBF3C
:1011900088E30E94BF078CE00E94BF0786E00E94A0
:1011A000BF0781E00E94BF0780E090E0A0E0B0E4CC
:1011B0008B839C83AD83BE8320E030E04AE755E417
:1011C0006B817C818D819E810E943A10DC01CB0174
:1011D00089879A87AB87BC8720E030E040E85FE3EF
:1011E00069857A858B859C850E94C41188230CF0C3
:1011F00005C081E090E098878F831AC020E03FEF20
:101200004FE757E469857A858B859C850E94581144
:1012100018160CF003C018861F820AC069857A85EB
:101220008B859C850E94890EDC01CB0198878F837A
:101230008F8198859A83898389819A810197F1F7B3
:101240009A8389832C960FB6F894DEBF0FBECDBF6C
:10125000DF91CF910895CF93DF93CDB7DEB7E4EC64
:10126000F0E083E390E091838083E0ECF0E0108293
:10127000E1ECF0E088E98083E2ECF0E086E0808356
:10128000DF91CF910895CF93DF93CDB7DEB721974C
:101290000FB6F894DEBF0FBECDBF8983E0ECF0E05F
:1012A00080819927807290700097C1F3E6ECF0E09E
:1012B0008981808321960FB6F894DEBF0FBECDBF23
:1012C000DF91CF910895CF93DF93CDB7DEB722970B
:1012D0000FB6F894DEBF0FBECDBF9A8389830AC0D4
:1012E000E981FA8180810E94430989819A8101966E
:1012F0009A838983E981FA818081882389F72296FC
:101300000FB6F894DEBF0FBECDBFDF91CF91089529
:10131000CF93DF93CDB7DEB78FEF80932E0510927A
:101320002F05DF91CF910895CF93DF93CDB7DEB72F
:101330000E94A30980932E058091180580932F05A4
:10134000DF91CF910895CF93DF93CDB7DEB722978A
:101350000FB6F894DEBF0FBECDBF8FEF8A838FEF3D
:101360008983E9E0F1E080818F60898389818F3F03
:1013700019F01092F70203C08FEF8093F70280916B
:10138000F702882371F48091F802882351F4809148
:1013900016059091170501969093170580931605F1
:1013A00022C08091F702882371F48091F80288238B
:1013B00051F01092170510921605109218058981A8
:1013C0008093F90210C08091F702882361F0809128
:1013D000F802882341F48091F9028A83109217055C
:1013E0001092160500C08091F7028093F8028A815E
:1013F000992722960FB6F894DEBF0FBECDBFDF91BE
:10140000CF910895CF93DF93CDB7DEB768970FB62E
:10141000F894DEBF0FBECDBF8AE0FE013296DF0139
:10142000982F1D929A95E9F7DE011C96BD8BAC8B27
:10143000EAEFF2E0FF8BEE8BF6E0F88FAE89BF8922
:101440000C90EE89FF893196FF8BEE8BAC89BD89BC
:101450000C92EC89FD893196FD8BEC8BF88DF15067
:10146000F88F888D882351F7198216C0CE01029615
:101470009E01245F3F4FAC0166E070E0C9010E940D
:10148000140C8530910529F4A1E0B0E0BB8BAA8B48
:1014900008C089818F5F898389818F3038F31B8AE7
:1014A0001A8A8A899B8968960FB6F894DEBF0FBEA8
:1014B000CDBFDF91CF910895CF93DF93CDB7DEB746
:1014C000A2970FB6F894DEBF0FBECDBF8AE0FE0133
:1014D0003196DF01982F1D929A95E9F7DE011B9650
:1014E000BA8FA98FE6E0F3E0FC8FEB8FF6E0FD8F7B
:1014F000AB8DBC8D0C90EB8DFC8D3196FC8FEB8F02
:10150000A98DBA8D0C92E98DFA8D3196FA8FE98FFB
:10151000FD8DF150FD8F8D8D882351F7DE015196A1
:10152000BF8FAE8FE0E0F3E0F9A3E8A3F6E0FAA303
:10153000A8A1B9A10C90E8A1F9A13196F9A3E8A35B
:10154000AE8DBF8D0C92EE8DFF8D3196FF8FEE8F9D
:10155000FAA1F150FAA38AA1882351F7CE010B9684
:101560009E012F5F3F4FA90166E070E00E94140CBE
:101570008630910519F0188E1F8A1AC0CE01419647
:101580009E012F5F3F4FA90166E070E00E94140C9E
:101590008630910559F48D81882341F48E81813004
:1015A00029F4A1E0B0E0B88FAF8B02C0188E1F8A7B
:1015B0008F89988DA2960FB6F894DEBF0FBECDBF6F
:1015C000DF91CF910895CF93DF93CDB7DEB76897C2
:1015D0000FB6F894DEBF0FBECDBF8B8B6C8B5E8BCE
:1015E0004D8B81E08B8384E08C8380E18D838B89BC
:1015F0008E831F828C898887CE0109969E012D5F7C
:101600003F4FAC0166E070E0C9010E94140C8350AA
:1016100089838981282F33278C899927880F991FDF
:101620002817390741F51A8217C08A8199279C012A
:101630008D899E89D901A80FB91F8A8199279C019C
:101640002D5F3F4FCE010996FC01E20FF31F808111
:101650008C938A818F5F8A838A81282F33278C8994
:101660009927880F991F28173907FCF281E090E02D
:10167000988F8F8B02C0188E1F8A8F89988D6896DD
:101680000FB6F894DEBF0FBECDBFDF91CF910895A6
:10169000CF93DF93CDB7DEB76C970FB6F894DEBF6C
:1016A0000FBECDBF8F8B688F5A8F498F81E08A83A1
:1016B00080E18B831C828F898D831E82888D8F832E
:1016C000888D9927880F991F8887198217C089816B
:1016D0009927AC01495F5F4F898199279C01898DCA
:1016E0009A8DF901E80FF91F2081CE010296FC01C5
:1016F000E40FF51F208389818F5F89838981282FDB
:101700003327888D9927880F991F28173907FCF2EE
:10171000888D9927880F991FBC01695F7F4FCE0183
:101720000D969E012E5F3F4FAC01C9010E94140C23
:101730008630910529F481E090E09C8F8B8F02C068
:101740001C8E1B8E8B8D9C8D6C960FB6F894DEBF15
:101750000FBECDBFDF91CF910895CF93DF93CDB76B
:10176000DEB728970FB6F894DEBF0FBECDBF9E83BD
:101770008D8378876F838FEF8C838FEF8B831DC072
:10178000ED81FE8190818C81892799279A838983B5
:101790008D819E8101969E838D8389819A81FC0132
:1017A000E45FFC4F90818B8189278C8389819A81AA
:1017B000FC01E45FFB4F80818B838F8198850197CB
:1017C00098878F838F8198852FEF8F3F9207C1F67F
:1017D0008C819927382F22278B819927822B932B55
:1017E00028960FB6F894DEBF0FBECDBFDF91CF9124
:1017F0000895CF93DF93CDB7DEB722970FB6F89455
:10180000DEBF0FBECDBF9A83898389819A81909371
:101810000D0580930C0522960FB6F894DEBF0FBE1F
:10182000CDBFDF91CF9108950F931F93CF93DF9397
:10183000CDB7DEB7A8970FB6F894DEBF0FBECDBF09
:101840009BA38AA36CA35EA34DA319828CA18A3F9C
:1018500018F018A61FA2C7C0198215C08981482F89
:101860005527898199279C018AA19BA1F901E80F3D
:10187000F91F2081CE010496FC01E40FF51F20839F
:1018800089818F5F898399818CA1981738F3898129
:1018900099279E012C5F3F4FBC01C9010E94AD0BEF
:1018A0009B838A838981282F33278A819B81892F73
:1018B0009927482FCE010496FC01E20FF31F4083C5
:1018C000898199279C012F5F3F4F4A81CE01049661
:1018D000FC01E20FF31F408319820EC08981282F7B
:1018E0003327CE010496FC01E20FF31F80810E9492
:1018F000180D89818F5F89838981282F33278CA1D7
:1019000099270296281739074CF380910C0590917E
:101910000D050E941D0E0E94F70D0E94610E882386
:10192000E1F30E944C0E19820FC0898199279C0116
:101930008DA19EA18901080F191F0E94380DF80181
:10194000808389818F5F89830E94810D882369F755
:101950008981882331F4809131098F5F8093310927
:1019600008C08981813029F4809130098F5F80938C
:10197000300989818230A8F18981992702972DA1A8
:101980003EA1BC01C9010E94AD0B9B838A838A8161
:101990009B81892F9927482F898199279C018DA1A7
:1019A0009EA1820F931FFC01329780814817A1F4FA
:1019B0004A81898199279C018DA19EA1820F931F45
:1019C000FC0131978081481739F489818250282F92
:1019D000332738A72FA307C0809130098F5F8093EA
:1019E000300918A61FA28FA198A5A8960FB6F89443
:1019F000DEBF0FBECDBFDF91CF911F910F91089534
:101A0000CF93DF93CDB7DEB7E4ECF0E083E390E073
:101A100091838083E0ECF0E01082E1ECF0E088E973
:101A20008083E2ECF0E086E08083DF91CF9108953F
:101A3000CF93DF93CDB7DEB721970FB6F894DEBF13
:101A40000FBECDBF8983E0ECF0E0808199278072E2
:101A500090700097C1F3E6ECF0E0898180832196D5
:101A60000FB6F894DEBF0FBECDBFDF91CF910895C2
:101A7000CF93DF93CDB7DEB723970FB6F894DEBFD1
:101A80000FBECDBF8091280590912905009719F4CC
:101A90001B821A822BC08091240590912505FC01A0
:101AA000E65EFA4F80818983809124059091250517
:101AB00001969093250580932405809128059091A7
:101AC0002905019790932905809328058091240585
:101AD000909125058A30910521F4109225051092E8
:101AE00024058981282F33273B832A838A819B8180
:101AF00023960FB6F894DEBF0FBECDBFDF91CF9116
:101B00000895CF93DF93CDB7DEB722970FB6F89441
:101B1000DEBF0FBECDBF80912805909129050097AB
:101B200019F41A82198204C081E090E09A838983B3
:101B300089819A8122960FB6F894DEBF0FBECDBF81
:101B4000DF91CF9108951F920F920FB60F9211243B
:101B50002F933F934F935F936F937F938F939F93B5
:101B6000AF93BF93EF93FF93CF93DF93CDB7DEB7E0
:101B70008091260590912705E6ECF0E02081FC019C
:101B8000E65EFA4F20838091280590912905019601
:101B9000909329058093280580912605909127052B
:101BA00001969093270580932605809126059091B4
:101BB00027058A30910521F41092270510922605F9
:101BC00080EA9FE00E941D0EDF91CF91FF91EF917F
:101BD000BF91AF919F918F917F916F915F914F9145
:101BE0003F912F910F900FBE0F901F901895CF939C
:101BF000DF93CDB7DEB7E0E8F0E01082E1E8F0E097
:101C00008CE08083E2E8F0E01082E4E8F0E011820A
:101C10001082E8E8F0E083E294EF91838083EFE6BE
:101C2000F0E01082E6E3F0E08FE280831092350965
:101C300010923409DF91CF910895CF93DF93CDB700
:101C4000DEB722970FB6F894DEBF0FBECDBF9A83E2
:101C500089838091340990913509009741F4E4E833
:101C6000F0E08081918190933509809334098981D6
:101C70009A819093330980933209E8E8F0E08981F2
:101C80009A819183808322960FB6F894DEBF0FBEAF
:101C9000CDBFDF91CF910895CF93DF93CDB7DEB75E
:101CA0008091340990913509009741F4E4E8F0E01F
:101CB000808191819093350980933409DF91CF9190
:101CC0000895CF93DF93CDB7DEB722970FB6F89480
:101CD000DEBF0FBECDBFE6E3F0E0808199278270C2
:101CE0009070009749F0E6E3F0E08FE2808381E0B6
:101CF00090E09A83898302C01A82198289819A812D
:101D000022960FB6F894DEBF0FBECDBFDF91CF9104
:101D10000895EF92FF920F931F937B018C0120E0B7
:101D200030E040E05FE40E948E1188237CF020E0E8
:101D300030E040E05FE4C801B7010E94DC0F0E9480
:101D4000FA11605070408040904804C0C801B7014B
:101D50000E94FA111F910F91FF90EF900895A0E05B
:101D6000B0E0E5EBFEE00C947814FC016A01908190
:101D7000923008F41BC1DB018C91823080F09430EA
:101D800061F4843009F012C19181EB0189819817C7
:101D900009F40CC1EEE0F5E009C1843011F4FB0157
:101DA00005C1823091F4923009F000C1EA01DF01EF
:101DB00088E00D9009928150E1F78181FB019181CA
:101DC0008923E6018983F601F1C0923041F36280F4
:101DD0007380EB018A809B80E480F5800681178107
:101DE0002C813D814E815F815301A818B908C5013E
:101DF000B7FCABC080970CF457C0861497040CF462
:101E0000BEC03401EE24FF2487019181FB01818152
:101E1000981709F4A6C0992309F49CC02E193F090C
:101E2000400B510B57FDB0C0E60119827B826A82DC
:101E3000F6012483358346835783E6012C813D8157
:101E40004E815F8179018A01DA01C9010197A109F7
:101E5000B1098F5F9F4FAF4FBF43F8F4E6016A812E
:101E60007B81A8019701220F331F441F551F61502A
:101E7000704079018A01DA01C9010197A109B1090C
:101E80008F5F9F4FAF4FBF4360F3E6017B836A8351
:101E9000F601248335834683578383E0D6018C93F0
:101EA00057FD39C0F60182C086149704B4F4C0E02F
:101EB000D0E0DA01C90181709070A070B0705695C1
:101EC000479537952795282B392B4A2B5B2B219645
:101ED000AC16BD0671F78A0C9B1C681479040CF0D3
:101EE00094CFC0E0D0E05401A618B708D801C701CC
:101EF00081709070A070B07016950795F794E79474
:101F0000E82AF92A0A2B1B2B2196AC16BD0671F77D
:101F10006A0C7B1C7ACFDA01C901B695A795979513
:101F200087952170307040705070282B392B4A2BC8
:101F30005B2BE6012C833D834E835F838A819B81EB
:101F400001969B838A83F60131C0882799278A19D5
:101F50009B0950CFE21AF30A040B150BA801970155
:101F600061CFE60199837B826A822E0D3F1D401F5F
:101F7000511FF60124833583468357838ECF20E09B
:101F800030E040E050E041CF81E0E60189837B8290
:101F90006A8250954095309521953F4F4F4F5F4F46
:101FA000F601248335834683578347CFCF01EEE084
:101FB000CDB7DEB70C949414A0E2B0E0E2EEFFE0FF
:101FC0000C94801469837A838B839C832D833E8356
:101FD0004F83588789E1E82EF12CEC0EFD1EB701E6
:101FE000CE0101960E946C138E010F5E1F4FB80147
:101FF000CE0105960E946C138A8991E089278A8B0D
:10200000AE01475F5F4FB801C7010E94AF0E0E944B
:102010004A12E6E0A0960C949C14A0E2B0E0E3E142
:10202000F0E10C94801469837A838B839C832D83E5
:102030003E834F83588799E1E92EF12CEC0EFD1E6B
:10204000B701CE0101960E946C138E010F5E1F4FE7
:10205000B801CE0105960E946C13AE01475F5F4F39
:10206000B801C7010E94AF0E0E944A12E6E0A09696
:102070000C949C14A0E2B0E0E0E4F0E10C94741441
:1020800069837A838B839C832D833E834F83588718
:102090008E01075E1F4FB801CE0101960E946C139E
:1020A000F1E1EF2EF12CEC0EFD1EB701CE010596ED
:1020B0000E946C13898D823078F09989923040F4B7
:1020C00020E09A8D8A89981321E02A8BB701E9C014
:1020D000843051F4923061F020E09A8D8A8998130F
:1020E00021E02A8FB801DDC0943029F4823041F715
:1020F0006EE075E0D6C0823079F3923009F32D8D11
:102100003E8D4F8D58A18D899E89AF89B88D22242F
:1021100033242101AA24BB246501EE24FF24870176
:1021200060E070E00DC06F5F7F4F6032710599F124
:10213000880F991FAA1FBB1F56954795379527955E
:1021400020FF19C0280E391E4A1E5B1E6624772404
:102150004301281639064A065B0628F4E1E06E2E94
:10216000712C812C912CAE0CBF1CC01ED11EA60C54
:10217000B71CC81CD91CEE0CFF1C001F111FB7FF99
:10218000D2CFE1E06E2E712C812C912CE628F7281D
:1021900008291929C8CF8B8D9C8D2B893C89820FEA
:1021A000931F02969C878B871A869A8D8A89981727
:1021B00011F081E08A87D7FE17C08B859C85A0FE31
:1021C0000CC0569447943794279420E030E040E0C8
:1021D00050E8222A332A442A552AD694C794B79421
:1021E000A79401969C878B8730E0A31630E0B30656
:1021F00030E0C30630E4D30618F58B859C850EC00D
:10220000220C331C441C551C019720E0A21620E030
:10221000B20620E0C20620E4D20680F4AA0CBB1C61
:10222000CC1CDD1C57FEECCF31E0632E712C812CD1
:10223000912CA628B728C828D928E2CF9C878B875D
:10224000D601C5018F779070A070B0708034910571
:10225000A105B10551F0AD86BE86CF86D88A83E050
:102260008987BE01675F7F4F1CC0A7FCF4CF211494
:1022700031044104510479F380E490E0A0E0B0E03F
:10228000A80EB91ECA1EDB1E80E8682E8FEF782EBE
:102290008FEF882E8FEF982EA620B720C820D92048
:1022A000DACFCB010E944A12E2E1A0960C9490147E
:1022B000A8E1B0E0EEE5F1E10C94801469837A8343
:1022C0008B839C832D833E834F83588781E1E82E47
:1022D000F12CEC0EFD1EB701CE0101960E946C138D
:1022E0008E01075F1F4FB801CE0105960E946C1347
:1022F0008989823018F42FEF3FEF0BC08985823037
:10230000D0F3B801C7010E940B14282F332727FDF3
:102310003095C901E6E068960C949C14A8E1B0E001
:10232000E4E9F1E10C94801469837A838B839C83C4
:102330002D833E834F83588781E1E82EF12CEC0EEC
:10234000FD1EB701CE0101960E946C138E01075F3E
:102350001F4FB801CE0105960E946C138989823007
:1023600018F42FEF3FEF0BC089858230D0F3B8010E
:10237000C7010E940B14282F332727FD3095C90170
:10238000E6E068960C949C14A8E1B0E0EAECF1E178
:102390000C94801469837A838B839C832D833E8382
:1023A0004F83588781E1E82EF12CEC0EFD1EB7011A
:1023B000CE0101960E946C138E01075F1F4FB8017A
:1023C000CE0105960E946C138989823018F08985A8
:1023D000823018F421E030E008C0B801C7010E9443
:1023E0000B14282F332727FD3095C901E6E06896A6
:1023F0000C949C14ACE0B0E0E0E0F2E10C948414A6
:1024000069837A838B839C83BE016B5F7F4FCE0190
:1024100001960E946C138D81823061F0823050F001
:10242000843069F48E81882359F52FEF3FEF4FEF09
:102430005FE72AC020E030E040E050E025C02F8177
:10244000388537FDF7CF2F31310564F78EE190E005
:10245000821B930B29853A854B855C8504C0569574
:102460004795379527958A95D2F78E81882361F015
:1024700050954095309521953F4F4F4F5F4F04C089
:1024800020E030E040E050E8CA01B901E2E02C96DB
:102490000C94A0144F925F926F927F928F929F92B2
:1024A000AF92BF92DF92EF92FF920F931F9320E0C3
:1024B00030E040E050E0FC01E480F58006811781C7
:1024C000D1808081823038F4D801C701A061AF7714
:1024D000B0706FEFD9C0843009F46EC0823009F457
:1024E00071C0E114F1040105110509F46BC082818A
:1024F00093816FEF823896070CF06AC062E87FEF35
:10250000681B790B6A3171050CF080C047015801D6
:10251000062E04C0B694A794979487940A94D2F791
:1025200044245524320181E090E0A0E0B0E004C0F2
:10253000880F991FAA1FBB1F6A95D2F70197A1099F
:10254000B109E822F9220A231B23E114F104010551
:10255000110529F061E0462E512C612C712C85016A
:102560007401E428F52806291729D801C7018F77B7
:102570009070A070B07080349105A105B10509F488
:1025800057C0D801C701CF96A11DB11D60E070E012
:102590008030E0E09E07E0E0AE07E0E4BE0710F028
:1025A00061E070E027E0B695A795979587952A9505
:1025B000D1F7AF77B07068C080E090E0A0E0B0E005
:1025C0006FEF62C080E090E0A0E0B0E060E05CC04F
:1025D000803891058CF7BC0161587F4FD801C70145
:1025E0008F779070A070B07080349105A105B1050F
:1025F000A1F08FE390E0A0E0B0E0E80EF91E0A1F22
:102600001B1F17FD28C0D801C701CCCF60E070E0C8
:1026100080E090E0A0E0B0E0CCCFE7FEF2CF80E435
:1026200090E0A0E0B0E0E80EF91E0A1F1B1FE9CF02
:10263000E7FC18C080E090E060E0E61660E0F60697
:1026400060E0060760E4160710F081E090E0BC014E
:10265000D801C701A7CF16950795F794E7946F5F48
:102660007F4FD1CFD801C701805C9F4FAF4FBF4F85
:1026700060E070E08030E0E09E07E0E0AE07E0E47C
:10268000BE0708F48FCF8CCF282F392F9A2F9F7732
:10269000842F8078892B962F9795992797958F77F8
:1026A000482F492B6695852F8078862BD794DD247B
:1026B000D7948F77582F5D29CA01B9011F910F91C7
:1026C000FF90EF90DF90BF90AF909F908F907F90A2
:1026D0006F905F904F900895FC01DB012081318164
:1026E0009281492F4F7750E0991F9927991F838135
:1026F000682F660F692B881F8827881FFD0181833B
:10270000662309F049C0211531054105510509F439
:1027100070C082E89FEFFD0193838283220F331FF5
:10272000441F551F220F331F441F551F220F331FF5
:10273000441F551F220F331F441F551F220F331FE5
:10274000441F551F220F331F441F551F220F331FD5
:10275000441F551F83E08C932030F0E03F07F0E0EA
:102760004F07F0E45F0790F482E89FEF220F331FDA
:10277000441F551F0197203060E0360760E0460790
:1027800060E4560798F3FD0193838283FD0124835F
:1027900035834683578308956F3F71F1862F9927BC
:1027A0008F579040FD019383828383E08C93220FA7
:1027B000331F441F551F220F331F441F551F220F65
:1027C000331F441F551F220F331F441F551F220F55
:1027D000331F441F551F220F331F441F551F220F45
:1027E000331F441F551F506424833583468357830A
:1027F000089582E08C930895211531054105510516
:1028000019F484E08C93089544FD02C01C92BECF5D
:1028100081E08C93BBCFEF92FF920F931F93CF93E6
:10282000DF93FC01DB018081823050F09C9192307B
:1028300038F0843041F49430B1F08181882381F400
:1028400061E070E04BC09430E9F18230A1F0923049
:10285000A1F36181ED018981681791F0662381F30D
:102860006FEF7FEF3BC0EB018981682F7727818174
:10287000681B710933C0923059F560E070E02EC0DA
:1028800022813381ED018A819B818217930734F382
:10289000281739079CF0E480F58006811781FD0137
:1028A00024813581468157812E153F054007510708
:1028B000A8F2E216F30604071507F8F6662309F0F6
:1028C000BFCFCECFFB018181882309F0B9CFC8CF1C
:1028D000EB018981882309F0B3CFC2CFCB01E6E0B9
:1028E000CDB7DEB70C949C142F923F924F925F921B
:1028F0006F927F928F929F92AF92BF92CF92DF9210
:10290000EF92FF920F931F93CF93DF93CDB7DEB774
:10291000CA1BDB0B0FB6F894DEBF0FBECDBF1994F8
:102920002A88398848885F846E847D848C849B845F
:10293000AA84B984C884DF80EE80FD800C811B816D
:10294000AA81B981CE0FD11D0FB6F894DEBF0FBE9C
:06295000CDBFED0108956A
:102956002020202053454F484F20454C45432E20EC
:10296600323536304B49542020002020422744205F
:10297600544553542050726F6772616D2056312E44
:102986003020200020202020202020202020202051
:102996002020202020202020202020202000202051
:1029A600202D2043414E4F50454E20434F4D4D2044
:1029B60054455354202D0020202020202020203252
:1029C6003031302F30372F32302020202020202069
:1029D600002020202020202050726F6772616D65D4
:1029E60064206279202020202020002020205061B1
:1029F600756C204279756E672D48756E2050617230
:102A06006B202020004B4559202D3E2073657269AE
:102A1600616C202020002020202020202020202043
:102A2600202020202020004175746F4261756420AB
:102A36006661756C742100536574204D6F64652062
:102A46004661756C742100FFFFFF01035001000110
:102A560001045001000101065001000100C181403E
:102A660001C0804101C0804100C1814001C0804158
:102A760000C1814000C1814001C0804101C0804148
:102A860000C1814000C1814001C0804100C1814038
:102A960001C0804101C0804100C1814001C0804128
:102AA60000C1814000C1814001C0804100C1814018
:102AB60001C0804101C0804100C1814000C1814008
:102AC60001C0804101C0804100C1814001C08041F8
:102AD60000C1814000C1814001C0804101C08041E8
:102AE60000C1814000C1814001C0804100C18140D8
:102AF60001C0804101C0804100C1814000C18140C8
:102B060001C0804101C0804100C1814001C08041B7
:102B160000C1814000C1814001C0804100C18140A7
:102B260001C0804101C0804100C1814001C0804197
:102B360000C1814000C1814001C0804101C0804187
:102B460000C1814000C1814001C0804100C1814077
:102B560001C0804101C0804100C1814000C0C10167
:102B6600C30302C2C60607C705C5C404CC0C0DCDF7
:102B76000FCFCE0E0ACACB0BC90908C8D81819D967
:102B86001BDBDA1A1EDEDF1FDD1D1CDC14D4D51597
:102B9600D71716D6D21213D311D1D010F03031F187
:102BA60033F3F23236F6F737F53534F43CFCFD3DB7
:102BB600FF3F3EFEFA3A3BFB39F9F83828E8E929A7
:102BC600EB2B2AEAEE2E2FEF2DEDEC2CE42425E557
:102BD60027E7E62622E2E323E12120E0A06061A1C7
:102BE60063A3A26266A6A767A56564A46CACAD6D77
:102BF600AF6F6EAEAA6A6BAB69A9A86878B8B979E7
:102C0600BB7B7ABABE7E7FBF7DBDBC7CB47475B516
:102C160077B7B67672B2B373B17170B05090915106
:102C26009353529296565797559594549C5C5D9D36
:102C36005F9F9E5E5A9A9B5B995958988848498926
:102C46004B8B8A4A4E8E8F4F8D4D4C8C44848545D6
:102C560087474686824243834181804060EA00007E
:062C660000000000000068
:00000001FF
